{
  "_format": "hh-sol-artifact-1",
  "contractName": "DigitalSignature",
  "sourceName": "contracts/DigitalSignature.sol",
  "abi": [
    {
      "inputs": [
        {
          "components": [
            {
              "internalType": "string",
              "name": "identifier",
              "type": "string"
            },
            {
              "internalType": "string",
              "name": "cid",
              "type": "string"
            },
            {
              "internalType": "string",
              "name": "encryptedCid",
              "type": "string"
            },
            {
              "internalType": "string",
              "name": "descriptionCid",
              "type": "string"
            },
            {
              "internalType": "bool",
              "name": "withNFT",
              "type": "bool"
            },
            {
              "internalType": "string",
              "name": "nftImageCid",
              "type": "string"
            },
            {
              "components": [
                {
                  "internalType": "string",
                  "name": "identifier",
                  "type": "string"
                },
                {
                  "internalType": "address",
                  "name": "signer",
                  "type": "address"
                },
                {
                  "internalType": "uint256",
                  "name": "totalUsed",
                  "type": "uint256"
                },
                {
                  "internalType": "uint256",
                  "name": "allowedToUse",
                  "type": "uint256"
                }
              ],
              "internalType": "struct SignatureConstraint[]",
              "name": "constraints",
              "type": "tuple[]"
            }
          ],
          "internalType": "struct CreateAgreementParams",
          "name": "params",
          "type": "tuple"
        }
      ],
      "name": "createAgreement",
      "outputs": [
        {
          "internalType": "uint256",
          "name": "",
          "type": "uint256"
        }
      ],
      "stateMutability": "nonpayable",
      "type": "function"
    },
    {
      "inputs": [
        {
          "internalType": "address",
          "name": "owner",
          "type": "address"
        },
        {
          "internalType": "uint256",
          "name": "offset",
          "type": "uint256"
        },
        {
          "internalType": "uint8",
          "name": "limit",
          "type": "uint8"
        }
      ],
      "name": "getAgreements",
      "outputs": [
        {
          "components": [
            {
              "internalType": "address",
              "name": "owner",
              "type": "address"
            },
            {
              "internalType": "enum AgreementStatus",
              "name": "status",
              "type": "uint8"
            },
            {
              "internalType": "uint256",
              "name": "index",
              "type": "uint256"
            },
            {
              "internalType": "string",
              "name": "identifier",
              "type": "string"
            },
            {
              "internalType": "string",
              "name": "cid",
              "type": "string"
            },
            {
              "internalType": "string",
              "name": "encryptedCid",
              "type": "string"
            },
            {
              "internalType": "string",
              "name": "descriptionCid",
              "type": "string"
            },
            {
              "internalType": "uint8",
              "name": "signedPackets",
              "type": "uint8"
            },
            {
              "internalType": "uint8",
              "name": "totalPackets",
              "type": "uint8"
            },
            {
              "internalType": "address",
              "name": "nftContractAddress",
              "type": "address"
            },
            {
              "components": [
                {
                  "internalType": "string",
                  "name": "identifier",
                  "type": "string"
                },
                {
                  "internalType": "address",
                  "name": "signer",
                  "type": "address"
                },
                {
                  "internalType": "uint256",
                  "name": "totalUsed",
                  "type": "uint256"
                },
                {
                  "internalType": "uint256",
                  "name": "allowedToUse",
                  "type": "uint256"
                }
              ],
              "internalType": "struct SignatureConstraint[]",
              "name": "constraints",
              "type": "tuple[]"
            }
          ],
          "internalType": "struct Agreement[]",
          "name": "",
          "type": "tuple[]"
        }
      ],
      "stateMutability": "view",
      "type": "function"
    },
    {
      "inputs": [],
      "name": "getProfile",
      "outputs": [
        {
          "components": [
            {
              "internalType": "uint256",
              "name": "totalAgreements",
              "type": "uint256"
            },
            {
              "internalType": "uint256",
              "name": "totalSignatures",
              "type": "uint256"
            }
          ],
          "internalType": "struct Profile",
          "name": "",
          "type": "tuple"
        }
      ],
      "stateMutability": "view",
      "type": "function"
    },
    {
      "inputs": [
        {
          "internalType": "address",
          "name": "owner",
          "type": "address"
        },
        {
          "internalType": "uint256",
          "name": "offset",
          "type": "uint256"
        },
        {
          "internalType": "uint8",
          "name": "limit",
          "type": "uint8"
        }
      ],
      "name": "getSignatures",
      "outputs": [
        {
          "components": [
            {
              "internalType": "address",
              "name": "agreementOwner",
              "type": "address"
            },
            {
              "internalType": "uint256",
              "name": "agreementIndex",
              "type": "uint256"
            },
            {
              "internalType": "uint256",
              "name": "index",
              "type": "uint256"
            },
            {
              "internalType": "string",
              "name": "identifier",
              "type": "string"
            },
            {
              "internalType": "string",
              "name": "encryptedCid",
              "type": "string"
            },
            {
              "internalType": "address",
              "name": "signer",
              "type": "address"
            },
            {
              "internalType": "address",
              "name": "nftContractAddress",
              "type": "address"
            },
            {
              "internalType": "uint256",
              "name": "nftTokenId",
              "type": "uint256"
            },
            {
              "internalType": "uint256",
              "name": "timestamp",
              "type": "uint256"
            },
            {
              "internalType": "uint256",
              "name": "blockNumber",
              "type": "uint256"
            }
          ],
          "internalType": "struct SignaturePacket[]",
          "name": "",
          "type": "tuple[]"
        }
      ],
      "stateMutability": "view",
      "type": "function"
    },
    {
      "inputs": [
        {
          "components": [
            {
              "internalType": "address",
              "name": "agreementOwner",
              "type": "address"
            },
            {
              "internalType": "uint256",
              "name": "agreementIndex",
              "type": "uint256"
            },
            {
              "internalType": "string",
              "name": "identifier",
              "type": "string"
            },
            {
              "internalType": "string",
              "name": "encryptedCid",
              "type": "string"
            },
            {
              "internalType": "string",
              "name": "nftTokenURI",
              "type": "string"
            }
          ],
          "internalType": "struct SignParams",
          "name": "params",
          "type": "tuple"
        }
      ],
      "name": "sign",
      "outputs": [
        {
          "internalType": "uint256",
          "name": "",
          "type": "uint256"
        }
      ],
      "stateMutability": "nonpayable",
      "type": "function"
    }
  ],
  "bytecode": "0x608060405234801561001057600080fd5b50615f09806100206000396000f3fe60806040523480156200001157600080fd5b50600436106200005e5760003560e01c8063554230f91462000063578063bc9c90561462000099578063be08164e14620000cf578063c07088551462000105578063d6afc9b1146200013b575b600080fd5b6200008160048036038101906200007b919062001c6c565b6200015d565b60405162000090919062002141565b60405180910390f35b620000b76004803603810190620000b1919062001c6c565b6200081c565b604051620000c691906200232a565b60405180910390f35b620000ed6004803603810190620000e7919062002375565b62000c45565b604051620000fc9190620023d7565b60405180910390f35b6200012360048036038101906200011d9190620028ad565b6200160f565b604051620001329190620023d7565b60405180910390f35b62000145620018f7565b60405162000154919062002931565b60405180910390f35b606060008060008673ffffffffffffffffffffffffffffffffffffffff1673ffffffffffffffffffffffffffffffffffffffff168152602001908152602001600020604051806040016040529081600082015481526020016001820154815250509050600080858360000151620001d591906200297d565b905060008560ff168211620001eb5781620001f0565b8560ff165b905060008167ffffffffffffffff811115620002115762000210620023f9565b5b6040519080825280602002602001820160405280156200024e57816020015b6200023a62001a1c565b815260200190600190039081620002305790505b50905060008890505b8289620002659190620029b8565b8110156200080c57600160008b73ffffffffffffffffffffffffffffffffffffffff1673ffffffffffffffffffffffffffffffffffffffff1681526020019081526020016000206000828152602001908152602001600020604051806101600160405290816000820160009054906101000a900473ffffffffffffffffffffffffffffffffffffffff1673ffffffffffffffffffffffffffffffffffffffff1673ffffffffffffffffffffffffffffffffffffffff1681526020016000820160149054906101000a900460ff16600381111562000347576200034662001d05565b5b60038111156200035c576200035b62001d05565b5b8152602001600182015481526020016002820180546200037c9062002a22565b80601f0160208091040260200160405190810160405280929190818152602001828054620003aa9062002a22565b8015620003fb5780601f10620003cf57610100808354040283529160200191620003fb565b820191906000526020600020905b815481529060010190602001808311620003dd57829003601f168201915b50505050508152602001600382018054620004169062002a22565b80601f0160208091040260200160405190810160405280929190818152602001828054620004449062002a22565b8015620004955780601f10620004695761010080835404028352916020019162000495565b820191906000526020600020905b8154815290600101906020018083116200047757829003601f168201915b50505050508152602001600482018054620004b09062002a22565b80601f0160208091040260200160405190810160405280929190818152602001828054620004de9062002a22565b80156200052f5780601f1062000503576101008083540402835291602001916200052f565b820191906000526020600020905b8154815290600101906020018083116200051157829003601f168201915b505050505081526020016005820180546200054a9062002a22565b80601f0160208091040260200160405190810160405280929190818152602001828054620005789062002a22565b8015620005c95780601f106200059d57610100808354040283529160200191620005c9565b820191906000526020600020905b815481529060010190602001808311620005ab57829003601f168201915b505050505081526020016006820160009054906101000a900460ff1660ff1660ff1681526020016006820160019054906101000a900460ff1660ff1660ff1681526020016006820160029054906101000a900473ffffffffffffffffffffffffffffffffffffffff1673ffffffffffffffffffffffffffffffffffffffff1673ffffffffffffffffffffffffffffffffffffffff16815260200160078201805480602002602001604051908101604052809291908181526020016000905b82821015620007bf5783829060005260206000209060040201604051806080016040529081600082018054620006bd9062002a22565b80601f0160208091040260200160405190810160405280929190818152602001828054620006eb9062002a22565b80156200073c5780601f1062000710576101008083540402835291602001916200073c565b820191906000526020600020905b8154815290600101906020018083116200071e57829003601f168201915b505050505081526020016001820160009054906101000a900473ffffffffffffffffffffffffffffffffffffffff1673ffffffffffffffffffffffffffffffffffffffff1673ffffffffffffffffffffffffffffffffffffffff168152602001600282015481526020016003820154815250508152602001906001019062000687565b5050505081525050828680620007d59062002a57565b975081518110620007eb57620007ea62002aa4565b5b60200260200101819052508080620008039062002a57565b91505062000257565b5080955050505050509392505050565b606060008060008673ffffffffffffffffffffffffffffffffffffffff1673ffffffffffffffffffffffffffffffffffffffff1681526020019081526020016000206040518060400160405290816000820154815260200160018201548152505090506000808583602001516200089491906200297d565b905060008560ff168211620008aa5781620008af565b8560ff165b905060008167ffffffffffffffff811115620008d057620008cf620023f9565b5b6040519080825280602002602001820160405280156200090d57816020015b620008f962001abd565b815260200190600190039081620008ef5790505b50905060008890505b8289620009249190620029b8565b81101562000c3557600260008b73ffffffffffffffffffffffffffffffffffffffff1673ffffffffffffffffffffffffffffffffffffffff1681526020019081526020016000206000828152602001908152602001600020604051806101400160405290816000820160009054906101000a900473ffffffffffffffffffffffffffffffffffffffff1673ffffffffffffffffffffffffffffffffffffffff1673ffffffffffffffffffffffffffffffffffffffff168152602001600182015481526020016002820154815260200160038201805462000a049062002a22565b80601f016020809104026020016040519081016040528092919081815260200182805462000a329062002a22565b801562000a835780601f1062000a575761010080835404028352916020019162000a83565b820191906000526020600020905b81548152906001019060200180831162000a6557829003601f168201915b5050505050815260200160048201805462000a9e9062002a22565b80601f016020809104026020016040519081016040528092919081815260200182805462000acc9062002a22565b801562000b1d5780601f1062000af15761010080835404028352916020019162000b1d565b820191906000526020600020905b81548152906001019060200180831162000aff57829003601f168201915b505050505081526020016005820160009054906101000a900473ffffffffffffffffffffffffffffffffffffffff1673ffffffffffffffffffffffffffffffffffffffff1673ffffffffffffffffffffffffffffffffffffffff1681526020016006820160009054906101000a900473ffffffffffffffffffffffffffffffffffffffff1673ffffffffffffffffffffffffffffffffffffffff1673ffffffffffffffffffffffffffffffffffffffff168152602001600782015481526020016008820154815260200160098201548152505082868062000bfe9062002a57565b97508151811062000c145762000c1362002aa4565b5b6020026020010181905250808062000c2c9062002a57565b91505062000916565b5080955050505050509392505050565b6000806001600084600001602081019062000c61919062002ad3565b73ffffffffffffffffffffffffffffffffffffffff1673ffffffffffffffffffffffffffffffffffffffff168152602001908152602001600020600084602001358152602001908152602001600020905082600001602081019062000cc7919062002ad3565b73ffffffffffffffffffffffffffffffffffffffff168160000160009054906101000a900473ffffffffffffffffffffffffffffffffffffffff1673ffffffffffffffffffffffffffffffffffffffff161462000d5b576040517f08c379a000000000000000000000000000000000000000000000000000000000815260040162000d529062002b66565b60405180910390fd5b6000600381111562000d725762000d7162001d05565b5b8160000160149054906101000a900460ff16600381111562000d995762000d9862001d05565b5b1462000ddc576040517f08c379a000000000000000000000000000000000000000000000000000000000815260040162000dd39062002bd8565b60405180910390fd5b6000806000905060005b83600701805490508110156200108d5785806040019062000e08919062002c09565b60405160200162000e1b92919062002ca9565b6040516020818303038152906040528051906020012084600701828154811062000e4a5762000e4962002aa4565b5b906000526020600020906004020160000160405160200162000e6d919062002d68565b604051602081830303815290604052805190602001200362001077576001915083600701818154811062000ea65762000ea562002aa4565b5b9060005260206000209060040201925060008360030154148062000ed1575082600301548360020154105b62000f13576040517f08c379a000000000000000000000000000000000000000000000000000000000815260040162000f0a9062002dd1565b60405180910390fd5b3273ffffffffffffffffffffffffffffffffffffffff168360010160009054906101000a900473ffffffffffffffffffffffffffffffffffffffff1673ffffffffffffffffffffffffffffffffffffffff16148062000fc25750600073ffffffffffffffffffffffffffffffffffffffff168360010160009054906101000a900473ffffffffffffffffffffffffffffffffffffffff1673ffffffffffffffffffffffffffffffffffffffff16145b62001004576040517f08c379a000000000000000000000000000000000000000000000000000000000815260040162000ffb9062002e43565b60405180910390fd5b8260020160008154809291906200101b9062002a57565b919050555060018360030154036200107157328360010160006101000a81548173ffffffffffffffffffffffffffffffffffffffff021916908373ffffffffffffffffffffffffffffffffffffffff1602179055505b6200108d565b8080620010849062002a57565b91505062000de6565b5080620010d1576040517f08c379a0000000000000000000000000000000000000000000000000000000008152600401620010c89062002eb5565b60405180910390fd5b60008060003273ffffffffffffffffffffffffffffffffffffffff1673ffffffffffffffffffffffffffffffffffffffff168152602001908152602001600020905060006040518061014001604052808660000160009054906101000a900473ffffffffffffffffffffffffffffffffffffffff1673ffffffffffffffffffffffffffffffffffffffff168152602001866001015481526020018360010154815260200188806040019062001187919062002c09565b8080601f016020809104026020016040519081016040528093929190818152602001838380828437600081840152601f19601f820116905080830192505050505050508152602001888060600190620011e1919062002c09565b8080601f016020809104026020016040519081016040528093929190818152602001838380828437600081840152601f19601f8201169050808301925050505050505081526020013273ffffffffffffffffffffffffffffffffffffffff1681526020018660060160029054906101000a900473ffffffffffffffffffffffffffffffffffffffff1673ffffffffffffffffffffffffffffffffffffffff16815260200160008152602001428152602001438152509050600073ffffffffffffffffffffffffffffffffffffffff168560060160029054906101000a900473ffffffffffffffffffffffffffffffffffffffff1673ffffffffffffffffffffffffffffffffffffffff1614620013ba5760008560060160029054906101000a900473ffffffffffffffffffffffffffffffffffffffff1690508073ffffffffffffffffffffffffffffffffffffffff166301a95bb3328a806080019062001349919062002c09565b6040518463ffffffff1660e01b8152600401620013699392919062002f1b565b6020604051808303816000875af115801562001389573d6000803e3d6000fd5b505050506040513d601f19601f82011682018060405250810190620013af919062002f68565b8260e0018181525050505b80600260003273ffffffffffffffffffffffffffffffffffffffff1673ffffffffffffffffffffffffffffffffffffffff16815260200190815260200160002060008460010154815260200190815260200160002060008201518160000160006101000a81548173ffffffffffffffffffffffffffffffffffffffff021916908373ffffffffffffffffffffffffffffffffffffffff1602179055506020820151816001015560408201518160020155606082015181600301908162001481919062003157565b50608082015181600401908162001499919062003157565b5060a08201518160050160006101000a81548173ffffffffffffffffffffffffffffffffffffffff021916908373ffffffffffffffffffffffffffffffffffffffff16021790555060c08201518160060160006101000a81548173ffffffffffffffffffffffffffffffffffffffff021916908373ffffffffffffffffffffffffffffffffffffffff16021790555060e082015181600701556101008201518160080155610120820151816009015590505084600601600081819054906101000a900460ff16809291906200156e906200323e565b91906101000a81548160ff021916908360ff160217905550508460060160019054906101000a900460ff1660ff168560060160009054906101000a900460ff1660ff1603620015e85760018560000160146101000a81548160ff02191690836003811115620015e257620015e162001d05565b5b02179055505b816001016000815480929190620015ff9062002a57565b9190505595505050505050919050565b6000806000803273ffffffffffffffffffffffffffffffffffffffff1673ffffffffffffffffffffffffffffffffffffffff16815260200190815260200160002090506000600160003273ffffffffffffffffffffffffffffffffffffffff1673ffffffffffffffffffffffffffffffffffffffff1681526020019081526020016000206000836000015481526020019081526020016000209050328160000160006101000a81548173ffffffffffffffffffffffffffffffffffffffff021916908373ffffffffffffffffffffffffffffffffffffffff16021790555060008160000160146101000a81548160ff0219169083600381111562001718576200171762001d05565b5b021790555081600001548160010181905550836000015181600201908162001741919062003157565b50836020015181600301908162001759919062003157565b50836040015181600401908162001771919062003157565b50836060015181600501908162001789919062003157565b5060008160060160006101000a81548160ff021916908360ff1602179055508360c00151518160060160016101000a81548160ff021916908360ff16021790555060005b8460c0015151811015620018b557816007018560c001518281518110620017f957620017f862002aa4565b5b60200260200101519080600181540180825580915050600190039060005260206000209060040201600090919091909150600082015181600001908162001841919062003157565b5060208201518160010160006101000a81548173ffffffffffffffffffffffffffffffffffffffff021916908373ffffffffffffffffffffffffffffffffffffffff160217905550604082015181600201556060820151816003015550508080620018ac9062002a57565b915050620017cd565b50836080015115620018d357620018d1818560a0015162001963565b505b816000016000815480929190620018ea9062002a57565b9190505592505050919050565b6200190162001b52565b6000803273ffffffffffffffffffffffffffffffffffffffff1673ffffffffffffffffffffffffffffffffffffffff16815260200190815260200160002060405180604001604052908160008201548152602001600182015481525050905090565b6000808360020184600201846040516200197d9062001b6c565b6200198b939291906200333d565b604051809103906000f080158015620019a8573d6000803e3d6000fd5b509050808460060160026101000a81548173ffffffffffffffffffffffffffffffffffffffff021916908373ffffffffffffffffffffffffffffffffffffffff1602179055508360060160029054906101000a900473ffffffffffffffffffffffffffffffffffffffff1691505092915050565b604051806101600160405280600073ffffffffffffffffffffffffffffffffffffffff1681526020016000600381111562001a5c5762001a5b62001d05565b5b81526020016000815260200160608152602001606081526020016060815260200160608152602001600060ff168152602001600060ff168152602001600073ffffffffffffffffffffffffffffffffffffffff168152602001606081525090565b604051806101400160405280600073ffffffffffffffffffffffffffffffffffffffff16815260200160008152602001600081526020016060815260200160608152602001600073ffffffffffffffffffffffffffffffffffffffff168152602001600073ffffffffffffffffffffffffffffffffffffffff1681526020016000815260200160008152602001600081525090565b604051806040016040528060008152602001600081525090565b612b44806200339083390190565b6000604051905090565b600080fd5b600080fd5b600073ffffffffffffffffffffffffffffffffffffffff82169050919050565b600062001bbb8262001b8e565b9050919050565b62001bcd8162001bae565b811462001bd957600080fd5b50565b60008135905062001bed8162001bc2565b92915050565b6000819050919050565b62001c088162001bf3565b811462001c1457600080fd5b50565b60008135905062001c288162001bfd565b92915050565b600060ff82169050919050565b62001c468162001c2e565b811462001c5257600080fd5b50565b60008135905062001c668162001c3b565b92915050565b60008060006060848603121562001c885762001c8762001b84565b5b600062001c988682870162001bdc565b935050602062001cab8682870162001c17565b925050604062001cbe8682870162001c55565b9150509250925092565b600081519050919050565b600082825260208201905092915050565b6000819050602082019050919050565b62001cff8162001bae565b82525050565b7f4e487b7100000000000000000000000000000000000000000000000000000000600052602160045260246000fd5b6004811062001d485762001d4762001d05565b5b50565b600081905062001d5b8262001d34565b919050565b600062001d6d8262001d4b565b9050919050565b62001d7f8162001d60565b82525050565b62001d908162001bf3565b82525050565b600081519050919050565b600082825260208201905092915050565b60005b8381101562001dd257808201518184015260208101905062001db5565b60008484015250505050565b6000601f19601f8301169050919050565b600062001dfc8262001d96565b62001e08818562001da1565b935062001e1a81856020860162001db2565b62001e258162001dde565b840191505092915050565b62001e3b8162001c2e565b82525050565b600081519050919050565b600082825260208201905092915050565b6000819050602082019050919050565b6000608083016000830151848203600086015262001e8c828262001def565b915050602083015162001ea3602086018262001cf4565b50604083015162001eb8604086018262001d85565b50606083015162001ecd606086018262001d85565b508091505092915050565b600062001ee6838362001e6d565b905092915050565b6000602082019050919050565b600062001f088262001e41565b62001f14818562001e4c565b93508360208202850162001f288562001e5d565b8060005b8581101562001f6a578484038952815162001f48858262001ed8565b945062001f558362001eee565b925060208a0199505060018101905062001f2c565b50829750879550505050505092915050565b60006101608301600083015162001f97600086018262001cf4565b50602083015162001fac602086018262001d74565b50604083015162001fc1604086018262001d85565b506060830151848203606086015262001fdb828262001def565b9150506080830151848203608086015262001ff7828262001def565b91505060a083015184820360a086015262002013828262001def565b91505060c083015184820360c08601526200202f828262001def565b91505060e08301516200204660e086018262001e30565b506101008301516200205d61010086018262001e30565b506101208301516200207461012086018262001cf4565b5061014083015184820361014086015262002090828262001efb565b9150508091505092915050565b6000620020ab838362001f7c565b905092915050565b6000602082019050919050565b6000620020cd8262001cc8565b620020d9818562001cd3565b935083602082028501620020ed8562001ce4565b8060005b858110156200212f57848403895281516200210d85826200209d565b94506200211a83620020b3565b925060208a01995050600181019050620020f1565b50829750879550505050505092915050565b600060208201905081810360008301526200215d8184620020c0565b905092915050565b600081519050919050565b600082825260208201905092915050565b6000819050602082019050919050565b600061014083016000830151620021ac600086018262001cf4565b506020830151620021c1602086018262001d85565b506040830151620021d6604086018262001d85565b5060608301518482036060860152620021f0828262001def565b915050608083015184820360808601526200220c828262001def565b91505060a08301516200222360a086018262001cf4565b5060c08301516200223860c086018262001cf4565b5060e08301516200224d60e086018262001d85565b506101008301516200226461010086018262001d85565b506101208301516200227b61012086018262001d85565b508091505092915050565b600062002294838362002191565b905092915050565b6000602082019050919050565b6000620022b68262002165565b620022c2818562002170565b935083602082028501620022d68562002181565b8060005b85811015620023185784840389528151620022f6858262002286565b945062002303836200229c565b925060208a01995050600181019050620022da565b50829750879550505050505092915050565b60006020820190508181036000830152620023468184620022a9565b905092915050565b600080fd5b600060a082840312156200236c576200236b6200234e565b5b81905092915050565b6000602082840312156200238e576200238d62001b84565b5b600082013567ffffffffffffffff811115620023af57620023ae62001b89565b5b620023bd8482850162002353565b91505092915050565b620023d18162001bf3565b82525050565b6000602082019050620023ee6000830184620023c6565b92915050565b600080fd5b7f4e487b7100000000000000000000000000000000000000000000000000000000600052604160045260246000fd5b620024338262001dde565b810181811067ffffffffffffffff82111715620024555762002454620023f9565b5b80604052505050565b60006200246a62001b7a565b905062002478828262002428565b919050565b600080fd5b600080fd5b600080fd5b600067ffffffffffffffff821115620024aa57620024a9620023f9565b5b620024b58262001dde565b9050602081019050919050565b82818337600083830152505050565b6000620024e8620024e2846200248c565b6200245e565b90508281526020810184848401111562002507576200250662002487565b5b62002514848285620024c2565b509392505050565b600082601f83011262002534576200253362002482565b5b813562002546848260208601620024d1565b91505092915050565b60008115159050919050565b62002566816200254f565b81146200257257600080fd5b50565b60008135905062002586816200255b565b92915050565b600067ffffffffffffffff821115620025aa57620025a9620023f9565b5b602082029050602081019050919050565b600080fd5b600060808284031215620025d957620025d8620023f4565b5b620025e560806200245e565b9050600082013567ffffffffffffffff8111156200260857620026076200247d565b5b62002616848285016200251c565b60008301525060206200262c8482850162001bdc565b6020830152506040620026428482850162001c17565b6040830152506060620026588482850162001c17565b60608301525092915050565b60006200267b62002675846200258c565b6200245e565b90508083825260208201905060208402830185811115620026a157620026a0620025bb565b5b835b81811015620026ef57803567ffffffffffffffff811115620026ca57620026c962002482565b5b808601620026d98982620025c0565b85526020850194505050602081019050620026a3565b5050509392505050565b600082601f83011262002711576200271062002482565b5b81356200272384826020860162002664565b91505092915050565b600060e08284031215620027455762002744620023f4565b5b6200275160e06200245e565b9050600082013567ffffffffffffffff8111156200277457620027736200247d565b5b62002782848285016200251c565b600083015250602082013567ffffffffffffffff811115620027a957620027a86200247d565b5b620027b7848285016200251c565b602083015250604082013567ffffffffffffffff811115620027de57620027dd6200247d565b5b620027ec848285016200251c565b604083015250606082013567ffffffffffffffff8111156200281357620028126200247d565b5b62002821848285016200251c565b6060830152506080620028378482850162002575565b60808301525060a082013567ffffffffffffffff8111156200285e576200285d6200247d565b5b6200286c848285016200251c565b60a08301525060c082013567ffffffffffffffff8111156200289357620028926200247d565b5b620028a184828501620026f9565b60c08301525092915050565b600060208284031215620028c657620028c562001b84565b5b600082013567ffffffffffffffff811115620028e757620028e662001b89565b5b620028f5848285016200272c565b91505092915050565b60408201600082015162002916600085018262001d85565b5060208201516200292b602085018262001d85565b50505050565b6000604082019050620029486000830184620028fe565b92915050565b7f4e487b7100000000000000000000000000000000000000000000000000000000600052601160045260246000fd5b60006200298a8262001bf3565b9150620029978362001bf3565b9250828203905081811115620029b257620029b16200294e565b5b92915050565b6000620029c58262001bf3565b9150620029d28362001bf3565b9250828201905080821115620029ed57620029ec6200294e565b5b92915050565b7f4e487b7100000000000000000000000000000000000000000000000000000000600052602260045260246000fd5b6000600282049050600182168062002a3b57607f821691505b60208210810362002a515762002a50620029f3565b5b50919050565b600062002a648262001bf3565b91507fffffffffffffffffffffffffffffffffffffffffffffffffffffffffffffffff820362002a995762002a986200294e565b5b600182019050919050565b7f4e487b7100000000000000000000000000000000000000000000000000000000600052603260045260246000fd5b60006020828403121562002aec5762002aeb62001b84565b5b600062002afc8482850162001bdc565b91505092915050565b600082825260208201905092915050565b7f496e76616c69642061677265656d656e74000000000000000000000000000000600082015250565b600062002b4e60118362002b05565b915062002b5b8262002b16565b602082019050919050565b6000602082019050818103600083015262002b818162002b3f565b9050919050565b7f41677265656d656e74206973206e6f742050454e44494e472000000000000000600082015250565b600062002bc060198362002b05565b915062002bcd8262002b88565b602082019050919050565b6000602082019050818103600083015262002bf38162002bb1565b9050919050565b600080fd5b600080fd5b600080fd5b6000808335600160200384360303811262002c295762002c2862002bfa565b5b80840192508235915067ffffffffffffffff82111562002c4e5762002c4d62002bff565b5b60208301925060018202360383131562002c6d5762002c6c62002c04565b5b509250929050565b600081905092915050565b600062002c8e838562002c75565b935062002c9d838584620024c2565b82840190509392505050565b600062002cb882848662002c80565b91508190509392505050565b60008190508160005260206000209050919050565b6000815462002ce88162002a22565b62002cf4818662002c75565b9450600182166000811462002d12576001811462002d285762002d5f565b60ff198316865281151582028601935062002d5f565b62002d338562002cc4565b60005b8381101562002d575781548189015260018201915060208101905062002d36565b838801955050505b50505092915050565b600062002d76828462002cd9565b915081905092915050565b7f5369676e617475726520616c7265616479206761746865726564000000000000600082015250565b600062002db9601a8362002b05565b915062002dc68262002d81565b602082019050919050565b6000602082019050818103600083015262002dec8162002daa565b9050919050565b7f4d69736d617463686564207369676e6572000000000000000000000000000000600082015250565b600062002e2b60118362002b05565b915062002e388262002df3565b602082019050919050565b6000602082019050818103600083015262002e5e8162002e1c565b9050919050565b7f4d697373696e67207369676e617475726520636f6e73747261696e7400000000600082015250565b600062002e9d601c8362002b05565b915062002eaa8262002e65565b602082019050919050565b6000602082019050818103600083015262002ed08162002e8e565b9050919050565b62002ee28162001bae565b82525050565b600062002ef6838562002b05565b935062002f05838584620024c2565b62002f108362001dde565b840190509392505050565b600060408201905062002f32600083018662002ed7565b818103602083015262002f4781848662002ee8565b9050949350505050565b60008151905062002f628162001bfd565b92915050565b60006020828403121562002f815762002f8062001b84565b5b600062002f918482850162002f51565b91505092915050565b60006020601f8301049050919050565b600082821b905092915050565b60006008830262002fe97fffffffffffffffffffffffffffffffffffffffffffffffffffffffffffffffff8262002faa565b62002ff5868362002faa565b95508019841693508086168417925050509392505050565b6000819050919050565b600062003038620030326200302c8462001bf3565b6200300d565b62001bf3565b9050919050565b6000819050919050565b620030548362003017565b6200306c62003063826200303f565b84845462002fb7565b825550505050565b600090565b6200308362003074565b6200309081848462003049565b505050565b5b81811015620030b857620030ac60008262003079565b60018101905062003096565b5050565b601f8211156200310757620030d18162002cc4565b620030dc8462002f9a565b81016020851015620030ec578190505b62003104620030fb8562002f9a565b83018262003095565b50505b505050565b600082821c905092915050565b60006200312c600019846008026200310c565b1980831691505092915050565b600062003147838362003119565b9150826002028217905092915050565b620031628262001d96565b67ffffffffffffffff8111156200317e576200317d620023f9565b5b6200318a825462002a22565b62003197828285620030bc565b600060209050601f831160018114620031cf5760008415620031ba578287015190505b620031c6858262003139565b86555062003236565b601f198416620031df8662002cc4565b60005b828110156200320957848901518255600182019150602085019450602081019050620031e2565b8683101562003229578489015162003225601f89168262003119565b8355505b6001600288020188555050505b505050505050565b60006200324b8262001c2e565b915060ff82036200326157620032606200294e565b5b600182019050919050565b600081546200327b8162002a22565b62003287818662002b05565b94506001821660008114620032a55760018114620032bc57620032f3565b60ff198316865281151560200286019350620032f3565b620032c78562002cc4565b60005b83811015620032eb57815481890152600182019150602081019050620032ca565b808801955050505b50505092915050565b6000620033098262001d96565b62003315818562002b05565b93506200332781856020860162001db2565b620033328162001dde565b840191505092915050565b600060608201905081810360008301526200335981866200326c565b905081810360208301526200336f81856200326c565b90508181036040830152620033858184620032fc565b905094935050505056fe60806040523480156200001157600080fd5b5060405162002b4438038062002b44833981810160405281019062000037919062000256565b828281600090816200004a91906200055a565b5080600190816200005c91906200055a565b505050600160068190555032600560006101000a81548173ffffffffffffffffffffffffffffffffffffffff021916908373ffffffffffffffffffffffffffffffffffffffff1602179055508060079081620000b991906200055a565b5050505062000641565b6000604051905090565b600080fd5b600080fd5b600080fd5b600080fd5b6000601f19601f8301169050919050565b7f4e487b7100000000000000000000000000000000000000000000000000000000600052604160045260246000fd5b6200012c82620000e1565b810181811067ffffffffffffffff821117156200014e576200014d620000f2565b5b80604052505050565b600062000163620000c3565b905062000171828262000121565b919050565b600067ffffffffffffffff821115620001945762000193620000f2565b5b6200019f82620000e1565b9050602081019050919050565b60005b83811015620001cc578082015181840152602081019050620001af565b60008484015250505050565b6000620001ef620001e98462000176565b62000157565b9050828152602081018484840111156200020e576200020d620000dc565b5b6200021b848285620001ac565b509392505050565b600082601f8301126200023b576200023a620000d7565b5b81516200024d848260208601620001d8565b91505092915050565b600080600060608486031215620002725762000271620000cd565b5b600084015167ffffffffffffffff811115620002935762000292620000d2565b5b620002a18682870162000223565b935050602084015167ffffffffffffffff811115620002c557620002c4620000d2565b5b620002d38682870162000223565b925050604084015167ffffffffffffffff811115620002f757620002f6620000d2565b5b620003058682870162000223565b9150509250925092565b600081519050919050565b7f4e487b7100000000000000000000000000000000000000000000000000000000600052602260045260246000fd5b600060028204905060018216806200036257607f821691505b6020821081036200037857620003776200031a565b5b50919050565b60008190508160005260206000209050919050565b60006020601f8301049050919050565b600082821b905092915050565b600060088302620003e27fffffffffffffffffffffffffffffffffffffffffffffffffffffffffffffffff82620003a3565b620003ee8683620003a3565b95508019841693508086168417925050509392505050565b6000819050919050565b6000819050919050565b60006200043b620004356200042f8462000406565b62000410565b62000406565b9050919050565b6000819050919050565b62000457836200041a565b6200046f620004668262000442565b848454620003b0565b825550505050565b600090565b6200048662000477565b620004938184846200044c565b505050565b5b81811015620004bb57620004af6000826200047c565b60018101905062000499565b5050565b601f8211156200050a57620004d4816200037e565b620004df8462000393565b81016020851015620004ef578190505b62000507620004fe8562000393565b83018262000498565b50505b505050565b600082821c905092915050565b60006200052f600019846008026200050f565b1980831691505092915050565b60006200054a83836200051c565b9150826002028217905092915050565b62000565826200030f565b67ffffffffffffffff811115620005815762000580620000f2565b5b6200058d825462000349565b6200059a828285620004bf565b600060209050601f831160018114620005d25760008415620005bd578287015190505b620005c985826200053c565b86555062000639565b601f198416620005e2866200037e565b60005b828110156200060c57848901518255600182019150602085019450602081019050620005e5565b868310156200062c578489015162000628601f8916826200051c565b8355505b6001600288020188555050505b505050505050565b6124f380620006516000396000f3fe608060405234801561001057600080fd5b50600436106101005760003560e01c806342842e0e11610097578063a22cb46511610066578063a22cb465146102d3578063b88d4fde146102ef578063c87b56dd1461030b578063e985e9c51461033b57610100565b806342842e0e146102395780636352211e1461025557806370a082311461028557806395d89b41146102b557610100565b80630883a42e116100d35780630883a42e146101b3578063095ea7b3146101e357806323b872dd146101ff5780632ada0d541461021b57610100565b806301a95bb31461010557806301ffc9a71461013557806306fdde0314610165578063081812fc14610183575b600080fd5b61011f600480360381019061011a91906115db565b61036b565b60405161012c9190611654565b60405180910390f35b61014f600480360381019061014a91906116c7565b6104dd565b60405161015c919061170f565b60405180910390f35b61016d6105bf565b60405161017a91906117ba565b60405180910390f35b61019d60048036038101906101989190611808565b610651565b6040516101aa9190611844565b60405180910390f35b6101cd60048036038101906101c891906115db565b610658565b6040516101da919061170f565b60405180910390f35b6101fd60048036038101906101f8919061185f565b6106fc565b005b6102196004803603810190610214919061189f565b610741565b005b610223610787565b60405161023091906117ba565b60405180910390f35b610253600480360381019061024e919061189f565b610819565b005b61026f600480360381019061026a9190611808565b61085f565b60405161027c9190611844565b60405180910390f35b61029f600480360381019061029a91906118f2565b6108e5565b6040516102ac9190611654565b60405180910390f35b6102bd61099c565b6040516102ca91906117ba565b60405180910390f35b6102ed60048036038101906102e8919061194b565b610a2e565b005b61030960048036038101906103049190611abb565b610a73565b005b61032560048036038101906103209190611808565b610aba565b60405161033291906117ba565b60405180910390f35b61035560048036038101906103509190611b3e565b610c0c565b604051610362919061170f565b60405180910390f35b60003273ffffffffffffffffffffffffffffffffffffffff16600560009054906101000a900473ffffffffffffffffffffffffffffffffffffffff1673ffffffffffffffffffffffffffffffffffffffff16146103fd576040517f08c379a00000000000000000000000000000000000000000000000000000000081526004016103f490611bca565b60405180910390fd5b61040984600654610c14565b61045960065484848080601f016020809104026020016040519081016040528093929190818152602001838380828437600081840152601f19601f82011690508083019250505050505050610c32565b600654600860008673ffffffffffffffffffffffffffffffffffffffff1673ffffffffffffffffffffffffffffffffffffffff16815260200190815260200160002084846040516104ab929190611c1a565b908152602001604051809103902081905550600660008154809291906104d090611c62565b9190505590509392505050565b60007f80ac58cd000000000000000000000000000000000000000000000000000000007bffffffffffffffffffffffffffffffffffffffffffffffffffffffff1916827bffffffffffffffffffffffffffffffffffffffffffffffffffffffff191614806105a857507f5b5e139f000000000000000000000000000000000000000000000000000000007bffffffffffffffffffffffffffffffffffffffffffffffffffffffff1916827bffffffffffffffffffffffffffffffffffffffffffffffffffffffff1916145b806105b857506105b782610c9f565b5b9050919050565b6060600080546105ce90611cd9565b80601f01602080910402602001604051908101604052809291908181526020018280546105fa90611cd9565b80156106475780601f1061061c57610100808354040283529160200191610647565b820191906000526020600020905b81548152906001019060200180831161062a57829003601f168201915b5050505050905090565b6000919050565b600080600860008673ffffffffffffffffffffffffffffffffffffffff1673ffffffffffffffffffffffffffffffffffffffff16815260200190815260200160002084846040516106aa929190611c1a565b90815260200160405180910390205490508473ffffffffffffffffffffffffffffffffffffffff166106db82610d09565b73ffffffffffffffffffffffffffffffffffffffff16149150509392505050565b600061073d576040517f08c379a000000000000000000000000000000000000000000000000000000000815260040161073490611d56565b60405180910390fd5b5050565b6000610782576040517f08c379a000000000000000000000000000000000000000000000000000000000815260040161077990611d56565b60405180910390fd5b505050565b60606007805461079690611cd9565b80601f01602080910402602001604051908101604052809291908181526020018280546107c290611cd9565b801561080f5780601f106107e45761010080835404028352916020019161080f565b820191906000526020600020905b8154815290600101906020018083116107f257829003601f168201915b5050505050905090565b600061085a576040517f08c379a000000000000000000000000000000000000000000000000000000000815260040161085190611d56565b60405180910390fd5b505050565b60008061086b83610d09565b9050600073ffffffffffffffffffffffffffffffffffffffff168173ffffffffffffffffffffffffffffffffffffffff16036108dc576040517f08c379a00000000000000000000000000000000000000000000000000000000081526004016108d390611dc2565b60405180910390fd5b80915050919050565b60008073ffffffffffffffffffffffffffffffffffffffff168273ffffffffffffffffffffffffffffffffffffffff1603610955576040517f08c379a000000000000000000000000000000000000000000000000000000000815260040161094c90611e54565b60405180910390fd5b600360008373ffffffffffffffffffffffffffffffffffffffff1673ffffffffffffffffffffffffffffffffffffffff168152602001908152602001600020549050919050565b6060600180546109ab90611cd9565b80601f01602080910402602001604051908101604052809291908181526020018280546109d790611cd9565b8015610a245780601f106109f957610100808354040283529160200191610a24565b820191906000526020600020905b815481529060010190602001808311610a0757829003601f168201915b5050505050905090565b6000610a6f576040517f08c379a0000000000000000000000000000000000000000000000000000000008152600401610a6690611d56565b60405180910390fd5b5050565b6000610ab4576040517f08c379a0000000000000000000000000000000000000000000000000000000008152600401610aab90611d56565b60405180910390fd5b50505050565b6060610ac582610d46565b6000600460008481526020019081526020016000208054610ae590611cd9565b80601f0160208091040260200160405190810160405280929190818152602001828054610b1190611cd9565b8015610b5e5780601f10610b3357610100808354040283529160200191610b5e565b820191906000526020600020905b815481529060010190602001808311610b4157829003601f168201915b505050505090506000610b6f610d91565b90506000815103610b84578192505050610c07565b600082511115610bb9578082604051602001610ba1929190611ea5565b60405160208183030381529060405292505050610c07565b6000815111610bd75760405180602001604052806000815250610c02565b80610be185610da8565b604051602001610bf2929190611ea5565b6040516020818303038152906040525b925050505b919050565b600092915050565b610c2e828260405180602001604052806000815250610e76565b5050565b610c3b82610ed1565b610c7a576040517f08c379a0000000000000000000000000000000000000000000000000000000008152600401610c7190611f3b565b60405180910390fd5b80600460008481526020019081526020016000209081610c9a9190612107565b505050565b60007f01ffc9a7000000000000000000000000000000000000000000000000000000007bffffffffffffffffffffffffffffffffffffffffffffffffffffffff1916827bffffffffffffffffffffffffffffffffffffffffffffffffffffffff1916149050919050565b60006002600083815260200190815260200160002060009054906101000a900473ffffffffffffffffffffffffffffffffffffffff169050919050565b610d4f81610ed1565b610d8e576040517f08c379a0000000000000000000000000000000000000000000000000000000008152600401610d8590611dc2565b60405180910390fd5b50565b606060405180602001604052806000815250905090565b606060006001610db784610f12565b01905060008167ffffffffffffffff811115610dd657610dd5611990565b5b6040519080825280601f01601f191660200182016040528015610e085781602001600182028036833780820191505090505b509050600082602001820190505b600115610e6b578080600190039150507f3031323334353637383961626364656600000000000000000000000000000000600a86061a8153600a8581610e5f57610e5e6121d9565b5b04945060008503610e16575b819350505050919050565b610e808383611065565b610e8d6000848484611226565b610ecc576040517f08c379a0000000000000000000000000000000000000000000000000000000008152600401610ec39061227a565b60405180910390fd5b505050565b60008073ffffffffffffffffffffffffffffffffffffffff16610ef383610d09565b73ffffffffffffffffffffffffffffffffffffffff1614159050919050565b600080600090507a184f03e93ff9f4daa797ed6e38ed64bf6a1f0100000000000000008310610f70577a184f03e93ff9f4daa797ed6e38ed64bf6a1f0100000000000000008381610f6657610f656121d9565b5b0492506040810190505b6d04ee2d6d415b85acef81000000008310610fad576d04ee2d6d415b85acef81000000008381610fa357610fa26121d9565b5b0492506020810190505b662386f26fc100008310610fdc57662386f26fc100008381610fd257610fd16121d9565b5b0492506010810190505b6305f5e1008310611005576305f5e1008381610ffb57610ffa6121d9565b5b0492506008810190505b612710831061102a5761271083816110205761101f6121d9565b5b0492506004810190505b6064831061104d5760648381611043576110426121d9565b5b0492506002810190505b600a831061105c576001810190505b80915050919050565b600073ffffffffffffffffffffffffffffffffffffffff168273ffffffffffffffffffffffffffffffffffffffff16036110d4576040517f08c379a00000000000000000000000000000000000000000000000000000000081526004016110cb906122e6565b60405180910390fd5b6110dd81610ed1565b1561111d576040517f08c379a000000000000000000000000000000000000000000000000000000000815260040161111490612352565b60405180910390fd5b61112b6000838360016113ad565b61113481610ed1565b15611174576040517f08c379a000000000000000000000000000000000000000000000000000000000815260040161116b90612352565b60405180910390fd5b6001600360008473ffffffffffffffffffffffffffffffffffffffff1673ffffffffffffffffffffffffffffffffffffffff16815260200190815260200160002060008282540192505081905550816002600083815260200190815260200160002060006101000a81548173ffffffffffffffffffffffffffffffffffffffff021916908373ffffffffffffffffffffffffffffffffffffffff1602179055506112226000838360016114d3565b5050565b60006112478473ffffffffffffffffffffffffffffffffffffffff166114d9565b156113a0578373ffffffffffffffffffffffffffffffffffffffff1663150b7a026112706114fc565b8786866040518563ffffffff1660e01b815260040161129294939291906123c7565b6020604051808303816000875af19250505080156112ce57506040513d601f19601f820116820180604052508101906112cb9190612428565b60015b611350573d80600081146112fe576040519150601f19603f3d011682016040523d82523d6000602084013e611303565b606091505b506000815103611348576040517f08c379a000000000000000000000000000000000000000000000000000000000815260040161133f9061227a565b60405180910390fd5b805181602001fd5b63150b7a0260e01b7bffffffffffffffffffffffffffffffffffffffffffffffffffffffff1916817bffffffffffffffffffffffffffffffffffffffffffffffffffffffff1916149150506113a5565b600190505b949350505050565b60018111156114cd57600073ffffffffffffffffffffffffffffffffffffffff168473ffffffffffffffffffffffffffffffffffffffff16146114415780600360008673ffffffffffffffffffffffffffffffffffffffff1673ffffffffffffffffffffffffffffffffffffffff16815260200190815260200160002060008282546114399190612455565b925050819055505b600073ffffffffffffffffffffffffffffffffffffffff168373ffffffffffffffffffffffffffffffffffffffff16146114cc5780600360008573ffffffffffffffffffffffffffffffffffffffff1673ffffffffffffffffffffffffffffffffffffffff16815260200190815260200160002060008282546114c49190612489565b925050819055505b5b50505050565b50505050565b6000808273ffffffffffffffffffffffffffffffffffffffff163b119050919050565b600033905090565b6000604051905090565b600080fd5b600080fd5b600073ffffffffffffffffffffffffffffffffffffffff82169050919050565b600061154382611518565b9050919050565b61155381611538565b811461155e57600080fd5b50565b6000813590506115708161154a565b92915050565b600080fd5b600080fd5b600080fd5b60008083601f84011261159b5761159a611576565b5b8235905067ffffffffffffffff8111156115b8576115b761157b565b5b6020830191508360018202830111156115d4576115d3611580565b5b9250929050565b6000806000604084860312156115f4576115f361150e565b5b600061160286828701611561565b935050602084013567ffffffffffffffff81111561162357611622611513565b5b61162f86828701611585565b92509250509250925092565b6000819050919050565b61164e8161163b565b82525050565b60006020820190506116696000830184611645565b92915050565b60007fffffffff0000000000000000000000000000000000000000000000000000000082169050919050565b6116a48161166f565b81146116af57600080fd5b50565b6000813590506116c18161169b565b92915050565b6000602082840312156116dd576116dc61150e565b5b60006116eb848285016116b2565b91505092915050565b60008115159050919050565b611709816116f4565b82525050565b60006020820190506117246000830184611700565b92915050565b600081519050919050565b600082825260208201905092915050565b60005b83811015611764578082015181840152602081019050611749565b60008484015250505050565b6000601f19601f8301169050919050565b600061178c8261172a565b6117968185611735565b93506117a6818560208601611746565b6117af81611770565b840191505092915050565b600060208201905081810360008301526117d48184611781565b905092915050565b6117e58161163b565b81146117f057600080fd5b50565b600081359050611802816117dc565b92915050565b60006020828403121561181e5761181d61150e565b5b600061182c848285016117f3565b91505092915050565b61183e81611538565b82525050565b60006020820190506118596000830184611835565b92915050565b600080604083850312156118765761187561150e565b5b600061188485828601611561565b9250506020611895858286016117f3565b9150509250929050565b6000806000606084860312156118b8576118b761150e565b5b60006118c686828701611561565b93505060206118d786828701611561565b92505060406118e8868287016117f3565b9150509250925092565b6000602082840312156119085761190761150e565b5b600061191684828501611561565b91505092915050565b611928816116f4565b811461193357600080fd5b50565b6000813590506119458161191f565b92915050565b600080604083850312156119625761196161150e565b5b600061197085828601611561565b925050602061198185828601611936565b9150509250929050565b600080fd5b7f4e487b7100000000000000000000000000000000000000000000000000000000600052604160045260246000fd5b6119c882611770565b810181811067ffffffffffffffff821117156119e7576119e6611990565b5b80604052505050565b60006119fa611504565b9050611a0682826119bf565b919050565b600067ffffffffffffffff821115611a2657611a25611990565b5b611a2f82611770565b9050602081019050919050565b82818337600083830152505050565b6000611a5e611a5984611a0b565b6119f0565b905082815260208101848484011115611a7a57611a7961198b565b5b611a85848285611a3c565b509392505050565b600082601f830112611aa257611aa1611576565b5b8135611ab2848260208601611a4b565b91505092915050565b60008060008060808587031215611ad557611ad461150e565b5b6000611ae387828801611561565b9450506020611af487828801611561565b9350506040611b05878288016117f3565b925050606085013567ffffffffffffffff811115611b2657611b25611513565b5b611b3287828801611a8d565b91505092959194509250565b60008060408385031215611b5557611b5461150e565b5b6000611b6385828601611561565b9250506020611b7485828601611561565b9150509250929050565b7f4f6e6c79206f776e65722063616e206d696e74204e4654730000000000000000600082015250565b6000611bb4601883611735565b9150611bbf82611b7e565b602082019050919050565b60006020820190508181036000830152611be381611ba7565b9050919050565b600081905092915050565b6000611c018385611bea565b9350611c0e838584611a3c565b82840190509392505050565b6000611c27828486611bf5565b91508190509392505050565b7f4e487b7100000000000000000000000000000000000000000000000000000000600052601160045260246000fd5b6000611c6d8261163b565b91507fffffffffffffffffffffffffffffffffffffffffffffffffffffffffffffffff8203611c9f57611c9e611c33565b5b600182019050919050565b7f4e487b7100000000000000000000000000000000000000000000000000000000600052602260045260246000fd5b60006002820490506001821680611cf157607f821691505b602082108103611d0457611d03611caa565b5b50919050565b7f5472616e7366657273206e6f7420616c6c6f7765640000000000000000000000600082015250565b6000611d40601583611735565b9150611d4b82611d0a565b602082019050919050565b60006020820190508181036000830152611d6f81611d33565b9050919050565b7f4552433732313a20696e76616c696420746f6b656e2049440000000000000000600082015250565b6000611dac601883611735565b9150611db782611d76565b602082019050919050565b60006020820190508181036000830152611ddb81611d9f565b9050919050565b7f4552433732313a2061646472657373207a65726f206973206e6f74206120766160008201527f6c6964206f776e65720000000000000000000000000000000000000000000000602082015250565b6000611e3e602983611735565b9150611e4982611de2565b604082019050919050565b60006020820190508181036000830152611e6d81611e31565b9050919050565b6000611e7f8261172a565b611e898185611bea565b9350611e99818560208601611746565b80840191505092915050565b6000611eb18285611e74565b9150611ebd8284611e74565b91508190509392505050565b7f45524337323155524953746f726167653a2055524920736574206f66206e6f6e60008201527f6578697374656e7420746f6b656e000000000000000000000000000000000000602082015250565b6000611f25602e83611735565b9150611f3082611ec9565b604082019050919050565b60006020820190508181036000830152611f5481611f18565b9050919050565b60008190508160005260206000209050919050565b60006020601f8301049050919050565b600082821b905092915050565b600060088302611fbd7fffffffffffffffffffffffffffffffffffffffffffffffffffffffffffffffff82611f80565b611fc78683611f80565b95508019841693508086168417925050509392505050565b6000819050919050565b6000612004611fff611ffa8461163b565b611fdf565b61163b565b9050919050565b6000819050919050565b61201e83611fe9565b61203261202a8261200b565b848454611f8d565b825550505050565b600090565b61204761203a565b612052818484612015565b505050565b5b818110156120765761206b60008261203f565b600181019050612058565b5050565b601f8211156120bb5761208c81611f5b565b61209584611f70565b810160208510156120a4578190505b6120b86120b085611f70565b830182612057565b50505b505050565b600082821c905092915050565b60006120de600019846008026120c0565b1980831691505092915050565b60006120f783836120cd565b9150826002028217905092915050565b6121108261172a565b67ffffffffffffffff81111561212957612128611990565b5b6121338254611cd9565b61213e82828561207a565b600060209050601f831160018114612171576000841561215f578287015190505b61216985826120eb565b8655506121d1565b601f19841661217f86611f5b565b60005b828110156121a757848901518255600182019150602085019450602081019050612182565b868310156121c457848901516121c0601f8916826120cd565b8355505b6001600288020188555050505b505050505050565b7f4e487b7100000000000000000000000000000000000000000000000000000000600052601260045260246000fd5b7f4552433732313a207472616e7366657220746f206e6f6e20455243373231526560008201527f63656976657220696d706c656d656e7465720000000000000000000000000000602082015250565b6000612264603283611735565b915061226f82612208565b604082019050919050565b6000602082019050818103600083015261229381612257565b9050919050565b7f4552433732313a206d696e7420746f20746865207a65726f2061646472657373600082015250565b60006122d0602083611735565b91506122db8261229a565b602082019050919050565b600060208201905081810360008301526122ff816122c3565b9050919050565b7f4552433732313a20746f6b656e20616c7265616479206d696e74656400000000600082015250565b600061233c601c83611735565b915061234782612306565b602082019050919050565b6000602082019050818103600083015261236b8161232f565b9050919050565b600081519050919050565b600082825260208201905092915050565b600061239982612372565b6123a3818561237d565b93506123b3818560208601611746565b6123bc81611770565b840191505092915050565b60006080820190506123dc6000830187611835565b6123e96020830186611835565b6123f66040830185611645565b8181036060830152612408818461238e565b905095945050505050565b6000815190506124228161169b565b92915050565b60006020828403121561243e5761243d61150e565b5b600061244c84828501612413565b91505092915050565b60006124608261163b565b915061246b8361163b565b925082820390508181111561248357612482611c33565b5b92915050565b60006124948261163b565b915061249f8361163b565b92508282019050808211156124b7576124b6611c33565b5b9291505056fea26469706673582212200fdf5879f3aa9c2be88101f2a137063d26682bf92e0de27ef1935e700121619464736f6c63430008110033a2646970667358221220c3f776b55c9e1d3327fbe3af9e30a1988db2ac1de49f30dfb7a04f1da52f21a864736f6c63430008110033",
  "linkReferences": {},
  "deployedLinkReferences": {}
}