{
  "_format": "hh-sol-artifact-1",
  "contractName": "ProviderNFTDealClient",
  "sourceName": "contracts/fil-deal-clients/ProviderNFTDealClient.sol",
  "abi": [
    {
      "inputs": [
        {
          "internalType": "address",
          "name": "_nftAddress",
          "type": "address"
        }
      ],
      "stateMutability": "nonpayable",
      "type": "constructor"
    },
    {
      "inputs": [],
      "name": "AUTHORIZE_MESSAGE_METHOD_NUM",
      "outputs": [
        {
          "internalType": "uint64",
          "name": "",
          "type": "uint64"
        }
      ],
      "stateMutability": "view",
      "type": "function"
    },
    {
      "inputs": [
        {
          "internalType": "bytes",
          "name": "cidraw",
          "type": "bytes"
        },
        {
          "internalType": "bytes",
          "name": "provider",
          "type": "bytes"
        },
        {
          "internalType": "uint256",
          "name": "size",
          "type": "uint256"
        }
      ],
      "name": "authorizeData",
      "outputs": [],
      "stateMutability": "nonpayable",
      "type": "function"
    },
    {
      "inputs": [
        {
          "internalType": "uint64",
          "name": "",
          "type": "uint64"
        },
        {
          "internalType": "uint64",
          "name": "method",
          "type": "uint64"
        },
        {
          "internalType": "bytes",
          "name": "params",
          "type": "bytes"
        }
      ],
      "name": "handle_filecoin_method",
      "outputs": [],
      "stateMutability": "nonpayable",
      "type": "function"
    },
    {
      "inputs": [],
      "name": "nftAddress",
      "outputs": [
        {
          "internalType": "address",
          "name": "",
          "type": "address"
        }
      ],
      "stateMutability": "view",
      "type": "function"
    }
  ],
  "bytecode": "0x60806040523480156200001157600080fd5b50604051620013d5380380620013d58339818101604052810190620000379190620000e8565b806000806101000a81548173ffffffffffffffffffffffffffffffffffffffff021916908373ffffffffffffffffffffffffffffffffffffffff160217905550506200011a565b600080fd5b600073ffffffffffffffffffffffffffffffffffffffff82169050919050565b6000620000b08262000083565b9050919050565b620000c281620000a3565b8114620000ce57600080fd5b50565b600081519050620000e281620000b7565b92915050565b6000602082840312156200010157620001006200007e565b5b60006200011184828501620000d1565b91505092915050565b6112ab806200012a6000396000f3fe608060405234801561001057600080fd5b506004361061004c5760003560e01c80635bf8633a14610051578063868e10c41461006f578063a6b9cea61461008b578063c3bd579b146100a7575b600080fd5b6100596100c5565b6040516100669190610d05565b60405180910390f35b61008960048036038101906100849190610dcf565b6100e9565b005b6100a560048036038101906100a09190610e79565b610192565b005b6100af6102c8565b6040516100bc9190610f1d565b60405180910390f35b60008054906101000a900473ffffffffffffffffffffffffffffffffffffffff1681565b639d8b067867ffffffffffffffff168367ffffffffffffffff1614610143576040517f08c379a000000000000000000000000000000000000000000000000000000000815260040161013a90610fbb565b60405180910390fd5b36600061015084846102d0565b91509150366000366000366000806101688989610486565b96509650965096509650965096506101838787858585610192565b50505050505050505050505050565b60008060009054906101000a900473ffffffffffffffffffffffffffffffffffffffff16905060008173ffffffffffffffffffffffffffffffffffffffff166370a0823161022387878080601f016020809104026020016040519081016040528093929190818152602001838380828437600081840152601f19601f82011690508083019250505050505050610977565b6040518263ffffffff1660e01b815260040161023f919061103a565b602060405180830381865afa15801561025c573d6000803e3d6000fd5b505050506040513d601f19601f82011682018060405250810190610280919061106a565b116102c0576040517f08c379a00000000000000000000000000000000000000000000000000000000081526004016102b7906110e3565b60405180910390fd5b505050505050565b639d8b067881565b36600080600090507f82000000000000000000000000000000000000000000000000000000000000008585600081811061030d5761030c611103565b5b9050013560f81c60f81b7effffffffffffffffffffffffffffffffffffffffffffffffffffffffffffff19161461034757610346611132565b5b6001816103549190611190565b90506000806103a787878080601f016020809104026020016040519081016040528093929190818152602001838380828437600081840152601f19601f820116905080830192505050505050508461099a565b8167ffffffffffffffff169150809550819350829450505050600260ff168260ff16146103d7576103d6611132565b5b80836103e39190611190565b925061043387878080601f016020809104026020016040519081016040528093929190818152602001838380828437600081840152601f19601f820116905080830192505050505050508461099a565b8167ffffffffffffffff169150809550819350829450505050600260ff168260ff161461046357610462611132565b5b868684908989905092610478939291906111ce565b945094505050509250929050565b3660003660003660008060007f8b000000000000000000000000000000000000000000000000000000000000008a8a838181106104c6576104c5611103565b5b9050013560f81c60f81b7effffffffffffffffffffffffffffffffffffffffffffffffffffffffffffff191614610500576104ff611132565b5b60018161050d9190611190565b90507fd8000000000000000000000000000000000000000000000000000000000000008a8a8381811061054357610542611103565b5b9050013560f81c60f81b7effffffffffffffffffffffffffffffffffffffffffffffffffffffffffffff19161461057d5761057c611132565b5b60018161058a9190611190565b90507f2a000000000000000000000000000000000000000000000000000000000000008a8a838181106105c0576105bf611103565b5b9050013560f81c60f81b7effffffffffffffffffffffffffffffffffffffffffffffffffffffffffffff1916146105fa576105f9611132565b5b6001816106079190611190565b905060008061065a8c8c8080601f016020809104026020016040519081016040528093929190818152602001838380828437600081840152601f19601f820116905080830192505050505050508461099a565b8167ffffffffffffffff169150809550819350829450505050600260ff168260ff161461068a57610689611132565b5b8b8b8490838661069a9190611190565b926106a7939291906111ce565b9950995080836106b79190611190565b92506107078c8c8080601f016020809104026020016040519081016040528093929190818152602001838380828437600081840152601f19601f820116905080830192505050505050508461099a565b8167ffffffffffffffff169150809550819650829450505050600060ff168260ff161461073757610736611132565b5b7ff4000000000000000000000000000000000000000000000000000000000000008c8c8581811061076b5761076a611103565b5b9050013560f81c60f81b7effffffffffffffffffffffffffffffffffffffffffffffffffffffffffffff1916148061080057507ff5000000000000000000000000000000000000000000000000000000000000008c8c858181106107d2576107d1611103565b5b9050013560f81c60f81b7effffffffffffffffffffffffffffffffffffffffffffffffffffffffffffff1916145b61080d5761080c611132565b5b60018361081a9190611190565b925061086a8c8c8080601f016020809104026020016040519081016040528093929190818152602001838380828437600081840152601f19601f820116905080830192505050505050508461099a565b8167ffffffffffffffff169150809550819350829450505050600260ff168260ff161461089a57610899611132565b5b8b8b849083866108aa9190611190565b926108b7939291906111ce565b9750975080836108c79190611190565b92506109178c8c8080601f016020809104026020016040519081016040528093929190818152602001838380828437600081840152601f19601f820116905080830192505050505050508461099a565b8167ffffffffffffffff169150809550819350829450505050600260ff168260ff161461094757610946611132565b5b8b8b849083866109579190611190565b92610964939291906111ce565b9550955050505092959891949750929550565b6000601482511461098757600080fd5b600c6101000a6020830151049050919050565b6000806000806109aa8686610b28565b90506001856109b99190611190565b94506000600560e0831660ff16901c90506000601f83169050601c8160ff16106109e6576109e5611132565b5b60188160ff161015610a09578181888160ff169150955095509550505050610b21565b60188160ff1603610a5e576000610a208989610b28565b9050600188610a2f9190611190565b975060188160ff161015610a4657610a45611132565b5b8281898160ff16915096509650965050505050610b21565b60198160ff1603610a9f576000610a758989610b8f565b9050600288610a849190611190565b97508281898161ffff16915096509650965050505050610b21565b601a8160ff1603610ae2576000610ab68989610bf6565b9050600488610ac59190611190565b97508281898163ffffffff16915096509650965050505050610b21565b601b8160ff1614610af657610af5611132565b5b6000610b028989610c5d565b9050600888610b119190611190565b9750828189965096509650505050505b9250925092565b6000600182610b379190611190565b83511015610b7a576040517f08c379a0000000000000000000000000000000000000000000000000000000008152600401610b7190611255565b60405180910390fd5b60008260010184015190508091505092915050565b6000600282610b9e9190611190565b83511015610be1576040517f08c379a0000000000000000000000000000000000000000000000000000000008152600401610bd890611255565b60405180910390fd5b60008260020184015190508091505092915050565b6000600482610c059190611190565b83511015610c48576040517f08c379a0000000000000000000000000000000000000000000000000000000008152600401610c3f90611255565b60405180910390fd5b60008260040184015190508091505092915050565b6000600882610c6c9190611190565b83511015610caf576040517f08c379a0000000000000000000000000000000000000000000000000000000008152600401610ca690611255565b60405180910390fd5b60008260080184015190508091505092915050565b600073ffffffffffffffffffffffffffffffffffffffff82169050919050565b6000610cef82610cc4565b9050919050565b610cff81610ce4565b82525050565b6000602082019050610d1a6000830184610cf6565b92915050565b600080fd5b600080fd5b600067ffffffffffffffff82169050919050565b610d4781610d2a565b8114610d5257600080fd5b50565b600081359050610d6481610d3e565b92915050565b600080fd5b600080fd5b600080fd5b60008083601f840112610d8f57610d8e610d6a565b5b8235905067ffffffffffffffff811115610dac57610dab610d6f565b5b602083019150836001820283011115610dc857610dc7610d74565b5b9250929050565b60008060008060608587031215610de957610de8610d20565b5b6000610df787828801610d55565b9450506020610e0887828801610d55565b935050604085013567ffffffffffffffff811115610e2957610e28610d25565b5b610e3587828801610d79565b925092505092959194509250565b6000819050919050565b610e5681610e43565b8114610e6157600080fd5b50565b600081359050610e7381610e4d565b92915050565b600080600080600060608688031215610e9557610e94610d20565b5b600086013567ffffffffffffffff811115610eb357610eb2610d25565b5b610ebf88828901610d79565b9550955050602086013567ffffffffffffffff811115610ee257610ee1610d25565b5b610eee88828901610d79565b93509350506040610f0188828901610e64565b9150509295509295909350565b610f1781610d2a565b82525050565b6000602082019050610f326000830184610f0e565b92915050565b600082825260208201905092915050565b7f7468652066696c65636f696e206d6574686f642074686174207761732063616c60008201527f6c6564206973206e6f742068616e646c65640000000000000000000000000000602082015250565b6000610fa5603283610f38565b9150610fb082610f49565b604082019050919050565b60006020820190508181036000830152610fd481610f98565b9050919050565b6000819050919050565b6000611000610ffb610ff684610cc4565b610fdb565b610cc4565b9050919050565b600061101282610fe5565b9050919050565b600061102482611007565b9050919050565b61103481611019565b82525050565b600060208201905061104f600083018461102b565b92915050565b60008151905061106481610e4d565b92915050565b6000602082840312156110805761107f610d20565b5b600061108e84828501611055565b91505092915050565b7f50726f7669646572206973206d697373696e67207265717569726564204e4654600082015250565b60006110cd602083610f38565b91506110d882611097565b602082019050919050565b600060208201905081810360008301526110fc816110c0565b9050919050565b7f4e487b7100000000000000000000000000000000000000000000000000000000600052603260045260246000fd5b7f4e487b7100000000000000000000000000000000000000000000000000000000600052600160045260246000fd5b7f4e487b7100000000000000000000000000000000000000000000000000000000600052601160045260246000fd5b600061119b82610e43565b91506111a683610e43565b92508282019050808211156111be576111bd611161565b5b92915050565b600080fd5b600080fd5b600080858511156111e2576111e16111c4565b5b838611156111f3576111f26111c9565b5b6001850283019150848603905094509492505050565b7f736c6963696e67206f7574206f662072616e6765000000000000000000000000600082015250565b600061123f601483610f38565b915061124a82611209565b602082019050919050565b6000602082019050818103600083015261126e81611232565b905091905056fea2646970667358221220ae632f9d4a67064f6e2205f5a4f349f494355780620f3c0be02a6a069dd4cfac64736f6c63430008110033",
  "linkReferences": {},
  "deployedLinkReferences": {}
}