{
  "_format": "hh-sol-artifact-1",
  "contractName": "DigitalSignature",
  "sourceName": "contracts/DigitalSignature.sol",
  "abi": [
    {
      "inputs": [
        {
          "internalType": "uint256",
          "name": "index",
          "type": "uint256"
        },
        {
          "internalType": "string",
          "name": "nftImageCid",
          "type": "string"
        }
      ],
      "name": "agreementToNFT",
      "outputs": [
        {
          "internalType": "address",
          "name": "",
          "type": "address"
        }
      ],
      "stateMutability": "nonpayable",
      "type": "function"
    },
    {
      "inputs": [
        {
          "components": [
            {
              "internalType": "string",
              "name": "identifier",
              "type": "string"
            },
            {
              "internalType": "string",
              "name": "cid",
              "type": "string"
            },
            {
              "internalType": "string",
              "name": "encryptedCid",
              "type": "string"
            },
            {
              "internalType": "string",
              "name": "descriptionCid",
              "type": "string"
            },
            {
              "internalType": "bool",
              "name": "withNFT",
              "type": "bool"
            },
            {
              "internalType": "string",
              "name": "nftImageCid",
              "type": "string"
            },
            {
              "components": [
                {
                  "internalType": "string",
                  "name": "identifier",
                  "type": "string"
                },
                {
                  "internalType": "address",
                  "name": "signer",
                  "type": "address"
                },
                {
                  "internalType": "uint256",
                  "name": "totalUsed",
                  "type": "uint256"
                },
                {
                  "internalType": "uint256",
                  "name": "allowedToUse",
                  "type": "uint256"
                }
              ],
              "internalType": "struct SignatureConstraint[]",
              "name": "constraints",
              "type": "tuple[]"
            }
          ],
          "internalType": "struct CreateAgreementParams",
          "name": "params",
          "type": "tuple"
        }
      ],
      "name": "createAgreement",
      "outputs": [
        {
          "internalType": "uint256",
          "name": "",
          "type": "uint256"
        }
      ],
      "stateMutability": "nonpayable",
      "type": "function"
    },
    {
      "inputs": [
        {
          "internalType": "address",
          "name": "owner",
          "type": "address"
        },
        {
          "internalType": "uint256",
          "name": "offset",
          "type": "uint256"
        },
        {
          "internalType": "uint8",
          "name": "limit",
          "type": "uint8"
        }
      ],
      "name": "getAgreements",
      "outputs": [
        {
          "components": [
            {
              "internalType": "address",
              "name": "owner",
              "type": "address"
            },
            {
              "internalType": "enum AgreementStatus",
              "name": "status",
              "type": "uint8"
            },
            {
              "internalType": "uint256",
              "name": "index",
              "type": "uint256"
            },
            {
              "internalType": "string",
              "name": "identifier",
              "type": "string"
            },
            {
              "internalType": "string",
              "name": "cid",
              "type": "string"
            },
            {
              "internalType": "string",
              "name": "encryptedCid",
              "type": "string"
            },
            {
              "internalType": "string",
              "name": "descriptionCid",
              "type": "string"
            },
            {
              "internalType": "uint8",
              "name": "signedPackets",
              "type": "uint8"
            },
            {
              "internalType": "uint8",
              "name": "totalPackets",
              "type": "uint8"
            },
            {
              "internalType": "address",
              "name": "nftContractAddress",
              "type": "address"
            },
            {
              "components": [
                {
                  "internalType": "string",
                  "name": "identifier",
                  "type": "string"
                },
                {
                  "internalType": "address",
                  "name": "signer",
                  "type": "address"
                },
                {
                  "internalType": "uint256",
                  "name": "totalUsed",
                  "type": "uint256"
                },
                {
                  "internalType": "uint256",
                  "name": "allowedToUse",
                  "type": "uint256"
                }
              ],
              "internalType": "struct SignatureConstraint[]",
              "name": "constraints",
              "type": "tuple[]"
            }
          ],
          "internalType": "struct Agreement[]",
          "name": "",
          "type": "tuple[]"
        }
      ],
      "stateMutability": "view",
      "type": "function"
    },
    {
      "inputs": [],
      "name": "getProfile",
      "outputs": [
        {
          "components": [
            {
              "internalType": "uint256",
              "name": "totalAgreements",
              "type": "uint256"
            },
            {
              "internalType": "uint256",
              "name": "totalSignatures",
              "type": "uint256"
            }
          ],
          "internalType": "struct Profile",
          "name": "",
          "type": "tuple"
        }
      ],
      "stateMutability": "view",
      "type": "function"
    },
    {
      "inputs": [
        {
          "internalType": "address",
          "name": "owner",
          "type": "address"
        },
        {
          "internalType": "uint256",
          "name": "offset",
          "type": "uint256"
        },
        {
          "internalType": "uint8",
          "name": "limit",
          "type": "uint8"
        }
      ],
      "name": "getSignatures",
      "outputs": [
        {
          "components": [
            {
              "internalType": "address",
              "name": "agreementOwner",
              "type": "address"
            },
            {
              "internalType": "uint256",
              "name": "agreementIndex",
              "type": "uint256"
            },
            {
              "internalType": "uint256",
              "name": "index",
              "type": "uint256"
            },
            {
              "internalType": "string",
              "name": "identifier",
              "type": "string"
            },
            {
              "internalType": "string",
              "name": "encryptedCid",
              "type": "string"
            },
            {
              "internalType": "address",
              "name": "signer",
              "type": "address"
            },
            {
              "internalType": "address",
              "name": "nftContractAddress",
              "type": "address"
            },
            {
              "internalType": "uint256",
              "name": "nftTokenId",
              "type": "uint256"
            },
            {
              "internalType": "uint256",
              "name": "timestamp",
              "type": "uint256"
            },
            {
              "internalType": "uint256",
              "name": "blockNumber",
              "type": "uint256"
            }
          ],
          "internalType": "struct SignaturePacket[]",
          "name": "",
          "type": "tuple[]"
        }
      ],
      "stateMutability": "view",
      "type": "function"
    },
    {
      "inputs": [
        {
          "components": [
            {
              "internalType": "address",
              "name": "agreementOwner",
              "type": "address"
            },
            {
              "internalType": "uint256",
              "name": "agreementIndex",
              "type": "uint256"
            },
            {
              "internalType": "string",
              "name": "identifier",
              "type": "string"
            },
            {
              "internalType": "string",
              "name": "encryptedCid",
              "type": "string"
            },
            {
              "internalType": "string",
              "name": "nftTokenURI",
              "type": "string"
            }
          ],
          "internalType": "struct SignParams",
          "name": "params",
          "type": "tuple"
        }
      ],
      "name": "sign",
      "outputs": [
        {
          "internalType": "uint256",
          "name": "",
          "type": "uint256"
        }
      ],
      "stateMutability": "nonpayable",
      "type": "function"
    }
  ],
  "bytecode": "0x608060405234801561001057600080fd5b50615cc0806100206000396000f3fe60806040523480156200001157600080fd5b50600436106200006a5760003560e01c8063179af04f146200006f578063554230f914620000a5578063bc9c905614620000db578063be08164e1462000111578063c07088551462000147578063d6afc9b1146200017d575b600080fd5b6200008d600480360381019062000087919062001dc6565b6200019f565b6040516200009c919062001e71565b60405180910390f35b620000c36004803603810190620000bd919062001efd565b62000209565b604051620000d29190620023c1565b60405180910390f35b620000f96004803603810190620000f3919062001efd565b620008c8565b604051620001089190620025aa565b60405180910390f35b6200012f6004803603810190620001299190620025f5565b62000cf1565b6040516200013e919062002657565b60405180910390f35b6200016560048036038101906200015f9190620029dc565b620016aa565b60405162000174919062002657565b60405180910390f35b6200018762001992565b60405162000196919062002a60565b60405180910390f35b600080600160003273ffffffffffffffffffffffffffffffffffffffff1673ffffffffffffffffffffffffffffffffffffffff16815260200190815260200160002060008581526020019081526020016000209050620002008184620019fe565b91505092915050565b606060008060008673ffffffffffffffffffffffffffffffffffffffff1673ffffffffffffffffffffffffffffffffffffffff16815260200190815260200160002060405180604001604052908160008201548152602001600182015481525050905060008085836000015162000281919062002aac565b905060008560ff1682116200029757816200029c565b8560ff165b905060008167ffffffffffffffff811115620002bd57620002bc62001c7f565b5b604051908082528060200260200182016040528015620002fa57816020015b620002e662001ab7565b815260200190600190039081620002dc5790505b50905060008890505b828962000311919062002ae7565b811015620008b857600160008b73ffffffffffffffffffffffffffffffffffffffff1673ffffffffffffffffffffffffffffffffffffffff1681526020019081526020016000206000828152602001908152602001600020604051806101600160405290816000820160009054906101000a900473ffffffffffffffffffffffffffffffffffffffff1673ffffffffffffffffffffffffffffffffffffffff1673ffffffffffffffffffffffffffffffffffffffff1681526020016000820160149054906101000a900460ff166003811115620003f357620003f262001f96565b5b600381111562000408576200040762001f96565b5b815260200160018201548152602001600282018054620004289062002b51565b80601f0160208091040260200160405190810160405280929190818152602001828054620004569062002b51565b8015620004a75780601f106200047b57610100808354040283529160200191620004a7565b820191906000526020600020905b8154815290600101906020018083116200048957829003601f168201915b50505050508152602001600382018054620004c29062002b51565b80601f0160208091040260200160405190810160405280929190818152602001828054620004f09062002b51565b8015620005415780601f10620005155761010080835404028352916020019162000541565b820191906000526020600020905b8154815290600101906020018083116200052357829003601f168201915b505050505081526020016004820180546200055c9062002b51565b80601f01602080910402602001604051908101604052809291908181526020018280546200058a9062002b51565b8015620005db5780601f10620005af57610100808354040283529160200191620005db565b820191906000526020600020905b815481529060010190602001808311620005bd57829003601f168201915b50505050508152602001600582018054620005f69062002b51565b80601f0160208091040260200160405190810160405280929190818152602001828054620006249062002b51565b8015620006755780601f10620006495761010080835404028352916020019162000675565b820191906000526020600020905b8154815290600101906020018083116200065757829003601f168201915b505050505081526020016006820160009054906101000a900460ff1660ff1660ff1681526020016006820160019054906101000a900460ff1660ff1660ff1681526020016006820160029054906101000a900473ffffffffffffffffffffffffffffffffffffffff1673ffffffffffffffffffffffffffffffffffffffff1673ffffffffffffffffffffffffffffffffffffffff16815260200160078201805480602002602001604051908101604052809291908181526020016000905b828210156200086b5783829060005260206000209060040201604051806080016040529081600082018054620007699062002b51565b80601f0160208091040260200160405190810160405280929190818152602001828054620007979062002b51565b8015620007e85780601f10620007bc57610100808354040283529160200191620007e8565b820191906000526020600020905b815481529060010190602001808311620007ca57829003601f168201915b505050505081526020016001820160009054906101000a900473ffffffffffffffffffffffffffffffffffffffff1673ffffffffffffffffffffffffffffffffffffffff1673ffffffffffffffffffffffffffffffffffffffff168152602001600282015481526020016003820154815250508152602001906001019062000733565b5050505081525050828680620008819062002b86565b97508151811062000897576200089662002bd3565b5b60200260200101819052508080620008af9062002b86565b91505062000303565b5080955050505050509392505050565b606060008060008673ffffffffffffffffffffffffffffffffffffffff1673ffffffffffffffffffffffffffffffffffffffff16815260200190815260200160002060405180604001604052908160008201548152602001600182015481525050905060008085836020015162000940919062002aac565b905060008560ff1682116200095657816200095b565b8560ff165b905060008167ffffffffffffffff8111156200097c576200097b62001c7f565b5b604051908082528060200260200182016040528015620009b957816020015b620009a562001b58565b8152602001906001900390816200099b5790505b50905060008890505b8289620009d0919062002ae7565b81101562000ce157600260008b73ffffffffffffffffffffffffffffffffffffffff1673ffffffffffffffffffffffffffffffffffffffff1681526020019081526020016000206000828152602001908152602001600020604051806101400160405290816000820160009054906101000a900473ffffffffffffffffffffffffffffffffffffffff1673ffffffffffffffffffffffffffffffffffffffff1673ffffffffffffffffffffffffffffffffffffffff168152602001600182015481526020016002820154815260200160038201805462000ab09062002b51565b80601f016020809104026020016040519081016040528092919081815260200182805462000ade9062002b51565b801562000b2f5780601f1062000b035761010080835404028352916020019162000b2f565b820191906000526020600020905b81548152906001019060200180831162000b1157829003601f168201915b5050505050815260200160048201805462000b4a9062002b51565b80601f016020809104026020016040519081016040528092919081815260200182805462000b789062002b51565b801562000bc95780601f1062000b9d5761010080835404028352916020019162000bc9565b820191906000526020600020905b81548152906001019060200180831162000bab57829003601f168201915b505050505081526020016005820160009054906101000a900473ffffffffffffffffffffffffffffffffffffffff1673ffffffffffffffffffffffffffffffffffffffff1673ffffffffffffffffffffffffffffffffffffffff1681526020016006820160009054906101000a900473ffffffffffffffffffffffffffffffffffffffff1673ffffffffffffffffffffffffffffffffffffffff1673ffffffffffffffffffffffffffffffffffffffff168152602001600782015481526020016008820154815260200160098201548152505082868062000caa9062002b86565b97508151811062000cc05762000cbf62002bd3565b5b6020026020010181905250808062000cd89062002b86565b915050620009c2565b5080955050505050509392505050565b6000806001600084600001602081019062000d0d919062002c02565b73ffffffffffffffffffffffffffffffffffffffff1673ffffffffffffffffffffffffffffffffffffffff168152602001908152602001600020600084602001358152602001908152602001600020905082600001602081019062000d73919062002c02565b73ffffffffffffffffffffffffffffffffffffffff168160000160009054906101000a900473ffffffffffffffffffffffffffffffffffffffff1673ffffffffffffffffffffffffffffffffffffffff161462000e07576040517f08c379a000000000000000000000000000000000000000000000000000000000815260040162000dfe9062002c95565b60405180910390fd5b6000600381111562000e1e5762000e1d62001f96565b5b8160000160149054906101000a900460ff16600381111562000e455762000e4462001f96565b5b1462000e88576040517f08c379a000000000000000000000000000000000000000000000000000000000815260040162000e7f9062002d07565b60405180910390fd5b60008060009050600080600090505b8460070180549050811015620011415786806040019062000eb9919062002d38565b60405160200162000ecc92919062002dd8565b6040516020818303038152906040528051906020012085600701828154811062000efb5762000efa62002bd3565b5b906000526020600020906004020160000160405160200162000f1e919062002e97565b60405160208183030381529060405280519060200120036200112b576001925084600701818154811062000f575762000f5662002bd3565b5b9060005260206000209060040201935080915060008460030154148062000f85575083600301548460020154105b62000fc7576040517f08c379a000000000000000000000000000000000000000000000000000000000815260040162000fbe9062002f00565b60405180910390fd5b3273ffffffffffffffffffffffffffffffffffffffff168460010160009054906101000a900473ffffffffffffffffffffffffffffffffffffffff1673ffffffffffffffffffffffffffffffffffffffff161480620010765750600073ffffffffffffffffffffffffffffffffffffffff168460010160009054906101000a900473ffffffffffffffffffffffffffffffffffffffff1673ffffffffffffffffffffffffffffffffffffffff16145b620010b8576040517f08c379a0000000000000000000000000000000000000000000000000000000008152600401620010af9062002f72565b60405180910390fd5b836003016000815480929190620010cf9062002b86565b919050555060018460030154036200112557328460010160006101000a81548173ffffffffffffffffffffffffffffffffffffffff021916908373ffffffffffffffffffffffffffffffffffffffff1602179055505b62001141565b8080620011389062002b86565b91505062000e97565b508162001185576040517f08c379a00000000000000000000000000000000000000000000000000000000081526004016200117c9062002fe4565b60405180910390fd5b60008060003273ffffffffffffffffffffffffffffffffffffffff1673ffffffffffffffffffffffffffffffffffffffff168152602001908152602001600020905060006040518061014001604052808760000160009054906101000a900473ffffffffffffffffffffffffffffffffffffffff1673ffffffffffffffffffffffffffffffffffffffff16815260200187600101548152602001836001015481526020018980604001906200123b919062002d38565b8080601f016020809104026020016040519081016040528093929190818152602001838380828437600081840152601f19601f82011690508083019250505050505050815260200189806060019062001295919062002d38565b8080601f016020809104026020016040519081016040528093929190818152602001838380828437600081840152601f19601f8201169050808301925050505050505081526020013273ffffffffffffffffffffffffffffffffffffffff1681526020018760060160029054906101000a900473ffffffffffffffffffffffffffffffffffffffff1673ffffffffffffffffffffffffffffffffffffffff168152602001848152602001428152602001438152509050600073ffffffffffffffffffffffffffffffffffffffff168660060160029054906101000a900473ffffffffffffffffffffffffffffffffffffffff1673ffffffffffffffffffffffffffffffffffffffff1614620014545760008660060160029054906101000a900473ffffffffffffffffffffffffffffffffffffffff1690508073ffffffffffffffffffffffffffffffffffffffff1663d28bc0c132868c8060800190620013fd919062002d38565b6040518563ffffffff1660e01b81526004016200141e949392919062003039565b600060405180830381600087803b1580156200143957600080fd5b505af11580156200144e573d6000803e3d6000fd5b50505050505b80600260003273ffffffffffffffffffffffffffffffffffffffff1673ffffffffffffffffffffffffffffffffffffffff16815260200190815260200160002060008460010154815260200190815260200160002060008201518160000160006101000a81548173ffffffffffffffffffffffffffffffffffffffff021916908373ffffffffffffffffffffffffffffffffffffffff160217905550602082015181600101556040820151816002015560608201518160030190816200151b91906200323c565b5060808201518160040190816200153391906200323c565b5060a08201518160050160006101000a81548173ffffffffffffffffffffffffffffffffffffffff021916908373ffffffffffffffffffffffffffffffffffffffff16021790555060c08201518160060160006101000a81548173ffffffffffffffffffffffffffffffffffffffff021916908373ffffffffffffffffffffffffffffffffffffffff16021790555060e082015181600701556101008201518160080155610120820151816009015590505085600601600081819054906101000a900460ff1680929190620016089062003323565b91906101000a81548160ff021916908360ff160217905550508560060160019054906101000a900460ff1660ff168660060160009054906101000a900460ff1660ff1603620016825760018660000160146101000a81548160ff021916908360038111156200167c576200167b62001f96565b5b02179055505b816001016000815480929190620016999062002b86565b919050559650505050505050919050565b6000806000803273ffffffffffffffffffffffffffffffffffffffff1673ffffffffffffffffffffffffffffffffffffffff16815260200190815260200160002090506000600160003273ffffffffffffffffffffffffffffffffffffffff1673ffffffffffffffffffffffffffffffffffffffff1681526020019081526020016000206000836000015481526020019081526020016000209050328160000160006101000a81548173ffffffffffffffffffffffffffffffffffffffff021916908373ffffffffffffffffffffffffffffffffffffffff16021790555060008160000160146101000a81548160ff02191690836003811115620017b357620017b262001f96565b5b0217905550816000015481600101819055508360000151816002019081620017dc91906200323c565b508360200151816003019081620017f491906200323c565b5083604001518160040190816200180c91906200323c565b5083606001518160050190816200182491906200323c565b5060008160060160006101000a81548160ff021916908360ff1602179055508360c00151518160060160016101000a81548160ff021916908360ff16021790555060005b8460c00151518110156200195057816007018560c00151828151811062001894576200189362002bd3565b5b602002602001015190806001815401808255809150506001900390600052602060002090600402016000909190919091506000820151816000019081620018dc91906200323c565b5060208201518160010160006101000a81548173ffffffffffffffffffffffffffffffffffffffff021916908373ffffffffffffffffffffffffffffffffffffffff160217905550604082015181600201556060820151816003015550508080620019479062002b86565b91505062001868565b508360800151156200196e576200196c818560a00151620019fe565b505b816000016000815480929190620019859062002b86565b9190505592505050919050565b6200199c62001bed565b6000803273ffffffffffffffffffffffffffffffffffffffff1673ffffffffffffffffffffffffffffffffffffffff16815260200190815260200160002060405180604001604052908160008201548152602001600182015481525050905090565b60008083600201846002018460405162001a189062001c07565b62001a269392919062003422565b604051809103906000f08015801562001a43573d6000803e3d6000fd5b509050808460060160026101000a81548173ffffffffffffffffffffffffffffffffffffffff021916908373ffffffffffffffffffffffffffffffffffffffff1602179055508360060160029054906101000a900473ffffffffffffffffffffffffffffffffffffffff1691505092915050565b604051806101600160405280600073ffffffffffffffffffffffffffffffffffffffff1681526020016000600381111562001af75762001af662001f96565b5b81526020016000815260200160608152602001606081526020016060815260200160608152602001600060ff168152602001600060ff168152602001600073ffffffffffffffffffffffffffffffffffffffff168152602001606081525090565b604051806101400160405280600073ffffffffffffffffffffffffffffffffffffffff16815260200160008152602001600081526020016060815260200160608152602001600073ffffffffffffffffffffffffffffffffffffffff168152602001600073ffffffffffffffffffffffffffffffffffffffff1681526020016000815260200160008152602001600081525090565b604051806040016040528060008152602001600081525090565b612816806200347583390190565b6000604051905090565b600080fd5b600080fd5b6000819050919050565b62001c3e8162001c29565b811462001c4a57600080fd5b50565b60008135905062001c5e8162001c33565b92915050565b600080fd5b600080fd5b6000601f19601f8301169050919050565b7f4e487b7100000000000000000000000000000000000000000000000000000000600052604160045260246000fd5b62001cb98262001c6e565b810181811067ffffffffffffffff8211171562001cdb5762001cda62001c7f565b5b80604052505050565b600062001cf062001c15565b905062001cfe828262001cae565b919050565b600067ffffffffffffffff82111562001d215762001d2062001c7f565b5b62001d2c8262001c6e565b9050602081019050919050565b82818337600083830152505050565b600062001d5f62001d598462001d03565b62001ce4565b90508281526020810184848401111562001d7e5762001d7d62001c69565b5b62001d8b84828562001d39565b509392505050565b600082601f83011262001dab5762001daa62001c64565b5b813562001dbd84826020860162001d48565b91505092915050565b6000806040838503121562001de05762001ddf62001c1f565b5b600062001df08582860162001c4d565b925050602083013567ffffffffffffffff81111562001e145762001e1362001c24565b5b62001e228582860162001d93565b9150509250929050565b600073ffffffffffffffffffffffffffffffffffffffff82169050919050565b600062001e598262001e2c565b9050919050565b62001e6b8162001e4c565b82525050565b600060208201905062001e88600083018462001e60565b92915050565b62001e998162001e4c565b811462001ea557600080fd5b50565b60008135905062001eb98162001e8e565b92915050565b600060ff82169050919050565b62001ed78162001ebf565b811462001ee357600080fd5b50565b60008135905062001ef78162001ecc565b92915050565b60008060006060848603121562001f195762001f1862001c1f565b5b600062001f298682870162001ea8565b935050602062001f3c8682870162001c4d565b925050604062001f4f8682870162001ee6565b9150509250925092565b600081519050919050565b600082825260208201905092915050565b6000819050602082019050919050565b62001f908162001e4c565b82525050565b7f4e487b7100000000000000000000000000000000000000000000000000000000600052602160045260246000fd5b6004811062001fd95762001fd862001f96565b5b50565b600081905062001fec8262001fc5565b919050565b600062001ffe8262001fdc565b9050919050565b620020108162001ff1565b82525050565b620020218162001c29565b82525050565b600081519050919050565b600082825260208201905092915050565b60005b838110156200206357808201518184015260208101905062002046565b60008484015250505050565b60006200207c8262002027565b62002088818562002032565b93506200209a81856020860162002043565b620020a58162001c6e565b840191505092915050565b620020bb8162001ebf565b82525050565b600081519050919050565b600082825260208201905092915050565b6000819050602082019050919050565b600060808301600083015184820360008601526200210c82826200206f565b915050602083015162002123602086018262001f85565b50604083015162002138604086018262002016565b5060608301516200214d606086018262002016565b508091505092915050565b6000620021668383620020ed565b905092915050565b6000602082019050919050565b60006200218882620020c1565b620021948185620020cc565b935083602082028501620021a885620020dd565b8060005b85811015620021ea5784840389528151620021c8858262002158565b9450620021d5836200216e565b925060208a01995050600181019050620021ac565b50829750879550505050505092915050565b60006101608301600083015162002217600086018262001f85565b5060208301516200222c602086018262002005565b50604083015162002241604086018262002016565b50606083015184820360608601526200225b82826200206f565b915050608083015184820360808601526200227782826200206f565b91505060a083015184820360a08601526200229382826200206f565b91505060c083015184820360c0860152620022af82826200206f565b91505060e0830151620022c660e0860182620020b0565b50610100830151620022dd610100860182620020b0565b50610120830151620022f461012086018262001f85565b506101408301518482036101408601526200231082826200217b565b9150508091505092915050565b60006200232b8383620021fc565b905092915050565b6000602082019050919050565b60006200234d8262001f59565b62002359818562001f64565b9350836020820285016200236d8562001f75565b8060005b85811015620023af57848403895281516200238d85826200231d565b94506200239a8362002333565b925060208a0199505060018101905062002371565b50829750879550505050505092915050565b60006020820190508181036000830152620023dd818462002340565b905092915050565b600081519050919050565b600082825260208201905092915050565b6000819050602082019050919050565b6000610140830160008301516200242c600086018262001f85565b50602083015162002441602086018262002016565b50604083015162002456604086018262002016565b50606083015184820360608601526200247082826200206f565b915050608083015184820360808601526200248c82826200206f565b91505060a0830151620024a360a086018262001f85565b5060c0830151620024b860c086018262001f85565b5060e0830151620024cd60e086018262002016565b50610100830151620024e461010086018262002016565b50610120830151620024fb61012086018262002016565b508091505092915050565b600062002514838362002411565b905092915050565b6000602082019050919050565b60006200253682620023e5565b620025428185620023f0565b935083602082028501620025568562002401565b8060005b8581101562002598578484038952815162002576858262002506565b945062002583836200251c565b925060208a019950506001810190506200255a565b50829750879550505050505092915050565b60006020820190508181036000830152620025c6818462002529565b905092915050565b600080fd5b600060a08284031215620025ec57620025eb620025ce565b5b81905092915050565b6000602082840312156200260e576200260d62001c1f565b5b600082013567ffffffffffffffff8111156200262f576200262e62001c24565b5b6200263d84828501620025d3565b91505092915050565b620026518162001c29565b82525050565b60006020820190506200266e600083018462002646565b92915050565b600080fd5b600080fd5b60008115159050919050565b62002695816200267e565b8114620026a157600080fd5b50565b600081359050620026b5816200268a565b92915050565b600067ffffffffffffffff821115620026d957620026d862001c7f565b5b602082029050602081019050919050565b600080fd5b60006080828403121562002708576200270762002674565b5b62002714608062001ce4565b9050600082013567ffffffffffffffff81111562002737576200273662002679565b5b620027458482850162001d93565b60008301525060206200275b8482850162001ea8565b6020830152506040620027718482850162001c4d565b6040830152506060620027878482850162001c4d565b60608301525092915050565b6000620027aa620027a484620026bb565b62001ce4565b90508083825260208201905060208402830185811115620027d057620027cf620026ea565b5b835b818110156200281e57803567ffffffffffffffff811115620027f957620027f862001c64565b5b808601620028088982620026ef565b85526020850194505050602081019050620027d2565b5050509392505050565b600082601f83011262002840576200283f62001c64565b5b81356200285284826020860162002793565b91505092915050565b600060e0828403121562002874576200287362002674565b5b6200288060e062001ce4565b9050600082013567ffffffffffffffff811115620028a357620028a262002679565b5b620028b18482850162001d93565b600083015250602082013567ffffffffffffffff811115620028d857620028d762002679565b5b620028e68482850162001d93565b602083015250604082013567ffffffffffffffff8111156200290d576200290c62002679565b5b6200291b8482850162001d93565b604083015250606082013567ffffffffffffffff81111562002942576200294162002679565b5b620029508482850162001d93565b60608301525060806200296684828501620026a4565b60808301525060a082013567ffffffffffffffff8111156200298d576200298c62002679565b5b6200299b8482850162001d93565b60a08301525060c082013567ffffffffffffffff811115620029c257620029c162002679565b5b620029d08482850162002828565b60c08301525092915050565b600060208284031215620029f557620029f462001c1f565b5b600082013567ffffffffffffffff81111562002a165762002a1562001c24565b5b62002a24848285016200285b565b91505092915050565b60408201600082015162002a45600085018262002016565b50602082015162002a5a602085018262002016565b50505050565b600060408201905062002a77600083018462002a2d565b92915050565b7f4e487b7100000000000000000000000000000000000000000000000000000000600052601160045260246000fd5b600062002ab98262001c29565b915062002ac68362001c29565b925082820390508181111562002ae15762002ae062002a7d565b5b92915050565b600062002af48262001c29565b915062002b018362001c29565b925082820190508082111562002b1c5762002b1b62002a7d565b5b92915050565b7f4e487b7100000000000000000000000000000000000000000000000000000000600052602260045260246000fd5b6000600282049050600182168062002b6a57607f821691505b60208210810362002b805762002b7f62002b22565b5b50919050565b600062002b938262001c29565b91507fffffffffffffffffffffffffffffffffffffffffffffffffffffffffffffffff820362002bc85762002bc762002a7d565b5b600182019050919050565b7f4e487b7100000000000000000000000000000000000000000000000000000000600052603260045260246000fd5b60006020828403121562002c1b5762002c1a62001c1f565b5b600062002c2b8482850162001ea8565b91505092915050565b600082825260208201905092915050565b7f496e76616c69642061677265656d656e74000000000000000000000000000000600082015250565b600062002c7d60118362002c34565b915062002c8a8262002c45565b602082019050919050565b6000602082019050818103600083015262002cb08162002c6e565b9050919050565b7f41677265656d656e74206973206e6f742050454e44494e472000000000000000600082015250565b600062002cef60198362002c34565b915062002cfc8262002cb7565b602082019050919050565b6000602082019050818103600083015262002d228162002ce0565b9050919050565b600080fd5b600080fd5b600080fd5b6000808335600160200384360303811262002d585762002d5762002d29565b5b80840192508235915067ffffffffffffffff82111562002d7d5762002d7c62002d2e565b5b60208301925060018202360383131562002d9c5762002d9b62002d33565b5b509250929050565b600081905092915050565b600062002dbd838562002da4565b935062002dcc83858462001d39565b82840190509392505050565b600062002de782848662002daf565b91508190509392505050565b60008190508160005260206000209050919050565b6000815462002e178162002b51565b62002e23818662002da4565b9450600182166000811462002e41576001811462002e575762002e8e565b60ff198316865281151582028601935062002e8e565b62002e628562002df3565b60005b8381101562002e865781548189015260018201915060208101905062002e65565b838801955050505b50505092915050565b600062002ea5828462002e08565b915081905092915050565b7f5369676e617475726520616c7265616479206761746865726564000000000000600082015250565b600062002ee8601a8362002c34565b915062002ef58262002eb0565b602082019050919050565b6000602082019050818103600083015262002f1b8162002ed9565b9050919050565b7f4d69736d617463686564207369676e6572000000000000000000000000000000600082015250565b600062002f5a60118362002c34565b915062002f678262002f22565b602082019050919050565b6000602082019050818103600083015262002f8d8162002f4b565b9050919050565b7f4d697373696e67207369676e617475726520636f6e73747261696e7400000000600082015250565b600062002fcc601c8362002c34565b915062002fd98262002f94565b602082019050919050565b6000602082019050818103600083015262002fff8162002fbd565b9050919050565b600062003014838562002c34565b93506200302383858462001d39565b6200302e8362001c6e565b840190509392505050565b600060608201905062003050600083018762001e60565b6200305f602083018662002646565b81810360408301526200307481848662003006565b905095945050505050565b60006020601f8301049050919050565b600082821b905092915050565b600060088302620030ce7fffffffffffffffffffffffffffffffffffffffffffffffffffffffffffffffff826200308f565b620030da86836200308f565b95508019841693508086168417925050509392505050565b6000819050919050565b60006200311d62003117620031118462001c29565b620030f2565b62001c29565b9050919050565b6000819050919050565b6200313983620030fc565b62003151620031488262003124565b8484546200309c565b825550505050565b600090565b6200316862003159565b620031758184846200312e565b505050565b5b818110156200319d57620031916000826200315e565b6001810190506200317b565b5050565b601f821115620031ec57620031b68162002df3565b620031c1846200307f565b81016020851015620031d1578190505b620031e9620031e0856200307f565b8301826200317a565b50505b505050565b600082821c905092915050565b60006200321160001984600802620031f1565b1980831691505092915050565b60006200322c8383620031fe565b9150826002028217905092915050565b620032478262002027565b67ffffffffffffffff81111562003263576200326262001c7f565b5b6200326f825462002b51565b6200327c828285620031a1565b600060209050601f831160018114620032b457600084156200329f578287015190505b620032ab85826200321e565b8655506200331b565b601f198416620032c48662002df3565b60005b82811015620032ee57848901518255600182019150602085019450602081019050620032c7565b868310156200330e57848901516200330a601f891682620031fe565b8355505b6001600288020188555050505b505050505050565b6000620033308262001ebf565b915060ff820362003346576200334562002a7d565b5b600182019050919050565b60008154620033608162002b51565b6200336c818662002c34565b945060018216600081146200338a5760018114620033a157620033d8565b60ff198316865281151560200286019350620033d8565b620033ac8562002df3565b60005b83811015620033d057815481890152600182019150602081019050620033af565b808801955050505b50505092915050565b6000620033ee8262002027565b620033fa818562002c34565b93506200340c81856020860162002043565b620034178162001c6e565b840191505092915050565b600060608201905081810360008301526200343e818662003351565b9050818103602083015262003454818562003351565b905081810360408301526200346a8184620033e1565b905094935050505056fe60806040523480156200001157600080fd5b50604051620028163803806200281683398181016040528101906200003791906200020d565b828281600090816200004a919062000511565b5080600190816200005c919062000511565b505050806005908162000070919062000511565b50505050620005f8565b6000604051905090565b600080fd5b600080fd5b600080fd5b600080fd5b6000601f19601f8301169050919050565b7f4e487b7100000000000000000000000000000000000000000000000000000000600052604160045260246000fd5b620000e38262000098565b810181811067ffffffffffffffff82111715620001055762000104620000a9565b5b80604052505050565b60006200011a6200007a565b9050620001288282620000d8565b919050565b600067ffffffffffffffff8211156200014b576200014a620000a9565b5b620001568262000098565b9050602081019050919050565b60005b838110156200018357808201518184015260208101905062000166565b60008484015250505050565b6000620001a6620001a0846200012d565b6200010e565b905082815260208101848484011115620001c557620001c462000093565b5b620001d284828562000163565b509392505050565b600082601f830112620001f257620001f16200008e565b5b8151620002048482602086016200018f565b91505092915050565b60008060006060848603121562000229576200022862000084565b5b600084015167ffffffffffffffff8111156200024a576200024962000089565b5b6200025886828701620001da565b935050602084015167ffffffffffffffff8111156200027c576200027b62000089565b5b6200028a86828701620001da565b925050604084015167ffffffffffffffff811115620002ae57620002ad62000089565b5b620002bc86828701620001da565b9150509250925092565b600081519050919050565b7f4e487b7100000000000000000000000000000000000000000000000000000000600052602260045260246000fd5b600060028204905060018216806200031957607f821691505b6020821081036200032f576200032e620002d1565b5b50919050565b60008190508160005260206000209050919050565b60006020601f8301049050919050565b600082821b905092915050565b600060088302620003997fffffffffffffffffffffffffffffffffffffffffffffffffffffffffffffffff826200035a565b620003a586836200035a565b95508019841693508086168417925050509392505050565b6000819050919050565b6000819050919050565b6000620003f2620003ec620003e684620003bd565b620003c7565b620003bd565b9050919050565b6000819050919050565b6200040e83620003d1565b620004266200041d82620003f9565b84845462000367565b825550505050565b600090565b6200043d6200042e565b6200044a81848462000403565b505050565b5b8181101562000472576200046660008262000433565b60018101905062000450565b5050565b601f821115620004c1576200048b8162000335565b62000496846200034a565b81016020851015620004a6578190505b620004be620004b5856200034a565b8301826200044f565b50505b505050565b600082821c905092915050565b6000620004e660001984600802620004c6565b1980831691505092915050565b6000620005018383620004d3565b9150826002028217905092915050565b6200051c82620002c6565b67ffffffffffffffff811115620005385762000537620000a9565b5b62000544825462000300565b6200055182828562000476565b600060209050601f83116001811462000589576000841562000574578287015190505b620005808582620004f3565b865550620005f0565b601f198416620005998662000335565b60005b82811015620005c3578489015182556001820191506020850194506020810190506200059c565b86831015620005e35784890151620005df601f891682620004d3565b8355505b6001600288020188555050505b505050505050565b61220e80620006086000396000f3fe608060405234801561001057600080fd5b50600436106100f55760003560e01c80636352211e11610097578063b88d4fde11610066578063b88d4fde14610284578063c87b56dd146102a0578063d28bc0c1146102d0578063e985e9c5146102ec576100f5565b80636352211e146101ea57806370a082311461021a57806395d89b411461024a578063a22cb46514610268576100f5565b8063095ea7b3116100d3578063095ea7b31461017857806323b872dd146101945780632ada0d54146101b057806342842e0e146101ce576100f5565b806301ffc9a7146100fa57806306fdde031461012a578063081812fc14610148575b600080fd5b610114600480360381019061010f9190611369565b61031c565b60405161012191906113b1565b60405180910390f35b6101326103fe565b60405161013f919061145c565b60405180910390f35b610162600480360381019061015d91906114b4565b610490565b60405161016f9190611522565b60405180910390f35b610192600480360381019061018d9190611569565b610497565b005b6101ae60048036038101906101a991906115a9565b6104dc565b005b6101b8610522565b6040516101c5919061145c565b60405180910390f35b6101e860048036038101906101e391906115a9565b6105b4565b005b61020460048036038101906101ff91906114b4565b6105fa565b6040516102119190611522565b60405180910390f35b610234600480360381019061022f91906115fc565b610680565b6040516102419190611638565b60405180910390f35b610252610737565b60405161025f919061145c565b60405180910390f35b610282600480360381019061027d919061167f565b6107c9565b005b61029e600480360381019061029991906117f4565b61080e565b005b6102ba60048036038101906102b591906114b4565b610855565b6040516102c7919061145c565b60405180910390f35b6102ea60048036038101906102e591906118d7565b6109a7565b005b6103066004803603810190610301919061194b565b610a05565b60405161031391906113b1565b60405180910390f35b60007f80ac58cd000000000000000000000000000000000000000000000000000000007bffffffffffffffffffffffffffffffffffffffffffffffffffffffff1916827bffffffffffffffffffffffffffffffffffffffffffffffffffffffff191614806103e757507f5b5e139f000000000000000000000000000000000000000000000000000000007bffffffffffffffffffffffffffffffffffffffffffffffffffffffff1916827bffffffffffffffffffffffffffffffffffffffffffffffffffffffff1916145b806103f757506103f682610a0d565b5b9050919050565b60606000805461040d906119ba565b80601f0160208091040260200160405190810160405280929190818152602001828054610439906119ba565b80156104865780601f1061045b57610100808354040283529160200191610486565b820191906000526020600020905b81548152906001019060200180831161046957829003601f168201915b5050505050905090565b6000919050565b60006104d8576040517f08c379a00000000000000000000000000000000000000000000000000000000081526004016104cf90611a37565b60405180910390fd5b5050565b600061051d576040517f08c379a000000000000000000000000000000000000000000000000000000000815260040161051490611a37565b60405180910390fd5b505050565b606060058054610531906119ba565b80601f016020809104026020016040519081016040528092919081815260200182805461055d906119ba565b80156105aa5780601f1061057f576101008083540402835291602001916105aa565b820191906000526020600020905b81548152906001019060200180831161058d57829003601f168201915b5050505050905090565b60006105f5576040517f08c379a00000000000000000000000000000000000000000000000000000000081526004016105ec90611a37565b60405180910390fd5b505050565b60008061060683610a77565b9050600073ffffffffffffffffffffffffffffffffffffffff168173ffffffffffffffffffffffffffffffffffffffff1603610677576040517f08c379a000000000000000000000000000000000000000000000000000000000815260040161066e90611aa3565b60405180910390fd5b80915050919050565b60008073ffffffffffffffffffffffffffffffffffffffff168273ffffffffffffffffffffffffffffffffffffffff16036106f0576040517f08c379a00000000000000000000000000000000000000000000000000000000081526004016106e790611b35565b60405180910390fd5b600360008373ffffffffffffffffffffffffffffffffffffffff1673ffffffffffffffffffffffffffffffffffffffff168152602001908152602001600020549050919050565b606060018054610746906119ba565b80601f0160208091040260200160405190810160405280929190818152602001828054610772906119ba565b80156107bf5780601f10610794576101008083540402835291602001916107bf565b820191906000526020600020905b8154815290600101906020018083116107a257829003601f168201915b5050505050905090565b600061080a576040517f08c379a000000000000000000000000000000000000000000000000000000000815260040161080190611a37565b60405180910390fd5b5050565b600061084f576040517f08c379a000000000000000000000000000000000000000000000000000000000815260040161084690611a37565b60405180910390fd5b50505050565b606061086082610ab4565b6000600460008481526020019081526020016000208054610880906119ba565b80601f01602080910402602001604051908101604052809291908181526020018280546108ac906119ba565b80156108f95780601f106108ce576101008083540402835291602001916108f9565b820191906000526020600020905b8154815290600101906020018083116108dc57829003601f168201915b50505050509050600061090a610aff565b9050600081510361091f5781925050506109a2565b60008251111561095457808260405160200161093c929190611b91565b604051602081830303815290604052925050506109a2565b6000815111610972576040518060200160405280600081525061099d565b8061097c85610b16565b60405160200161098d929190611b91565b6040516020818303038152906040525b925050505b919050565b6109f58383838080601f016020809104026020016040519081016040528093929190818152602001838380828437600081840152601f19601f82011690508083019250505050505050610be4565b6109ff8484610c51565b50505050565b600092915050565b60007f01ffc9a7000000000000000000000000000000000000000000000000000000007bffffffffffffffffffffffffffffffffffffffffffffffffffffffff1916827bffffffffffffffffffffffffffffffffffffffffffffffffffffffff1916149050919050565b60006002600083815260200190815260200160002060009054906101000a900473ffffffffffffffffffffffffffffffffffffffff169050919050565b610abd81610c6f565b610afc576040517f08c379a0000000000000000000000000000000000000000000000000000000008152600401610af390611aa3565b60405180910390fd5b50565b606060405180602001604052806000815250905090565b606060006001610b2584610cb0565b01905060008167ffffffffffffffff811115610b4457610b436116c9565b5b6040519080825280601f01601f191660200182016040528015610b765781602001600182028036833780820191505090505b509050600082602001820190505b600115610bd9578080600190039150507f3031323334353637383961626364656600000000000000000000000000000000600a86061a8153600a8581610bcd57610bcc611bb5565b5b04945060008503610b84575b819350505050919050565b610bed82610c6f565b610c2c576040517f08c379a0000000000000000000000000000000000000000000000000000000008152600401610c2390611c56565b60405180910390fd5b80600460008481526020019081526020016000209081610c4c9190611e22565b505050565b610c6b828260405180602001604052806000815250610e03565b5050565b60008073ffffffffffffffffffffffffffffffffffffffff16610c9183610a77565b73ffffffffffffffffffffffffffffffffffffffff1614159050919050565b600080600090507a184f03e93ff9f4daa797ed6e38ed64bf6a1f0100000000000000008310610d0e577a184f03e93ff9f4daa797ed6e38ed64bf6a1f0100000000000000008381610d0457610d03611bb5565b5b0492506040810190505b6d04ee2d6d415b85acef81000000008310610d4b576d04ee2d6d415b85acef81000000008381610d4157610d40611bb5565b5b0492506020810190505b662386f26fc100008310610d7a57662386f26fc100008381610d7057610d6f611bb5565b5b0492506010810190505b6305f5e1008310610da3576305f5e1008381610d9957610d98611bb5565b5b0492506008810190505b6127108310610dc8576127108381610dbe57610dbd611bb5565b5b0492506004810190505b60648310610deb5760648381610de157610de0611bb5565b5b0492506002810190505b600a8310610dfa576001810190505b80915050919050565b610e0d8383610e5e565b610e1a600084848461101f565b610e59576040517f08c379a0000000000000000000000000000000000000000000000000000000008152600401610e5090611f66565b60405180910390fd5b505050565b600073ffffffffffffffffffffffffffffffffffffffff168273ffffffffffffffffffffffffffffffffffffffff1603610ecd576040517f08c379a0000000000000000000000000000000000000000000000000000000008152600401610ec490611fd2565b60405180910390fd5b610ed681610c6f565b15610f16576040517f08c379a0000000000000000000000000000000000000000000000000000000008152600401610f0d9061203e565b60405180910390fd5b610f246000838360016111a6565b610f2d81610c6f565b15610f6d576040517f08c379a0000000000000000000000000000000000000000000000000000000008152600401610f649061203e565b60405180910390fd5b6001600360008473ffffffffffffffffffffffffffffffffffffffff1673ffffffffffffffffffffffffffffffffffffffff16815260200190815260200160002060008282540192505081905550816002600083815260200190815260200160002060006101000a81548173ffffffffffffffffffffffffffffffffffffffff021916908373ffffffffffffffffffffffffffffffffffffffff16021790555061101b6000838360016112cc565b5050565b60006110408473ffffffffffffffffffffffffffffffffffffffff166112d2565b15611199578373ffffffffffffffffffffffffffffffffffffffff1663150b7a026110696112f5565b8786866040518563ffffffff1660e01b815260040161108b94939291906120b3565b6020604051808303816000875af19250505080156110c757506040513d601f19601f820116820180604052508101906110c49190612114565b60015b611149573d80600081146110f7576040519150601f19603f3d011682016040523d82523d6000602084013e6110fc565b606091505b506000815103611141576040517f08c379a000000000000000000000000000000000000000000000000000000000815260040161113890611f66565b60405180910390fd5b805181602001fd5b63150b7a0260e01b7bffffffffffffffffffffffffffffffffffffffffffffffffffffffff1916817bffffffffffffffffffffffffffffffffffffffffffffffffffffffff19161491505061119e565b600190505b949350505050565b60018111156112c657600073ffffffffffffffffffffffffffffffffffffffff168473ffffffffffffffffffffffffffffffffffffffff161461123a5780600360008673ffffffffffffffffffffffffffffffffffffffff1673ffffffffffffffffffffffffffffffffffffffff16815260200190815260200160002060008282546112329190612170565b925050819055505b600073ffffffffffffffffffffffffffffffffffffffff168373ffffffffffffffffffffffffffffffffffffffff16146112c55780600360008573ffffffffffffffffffffffffffffffffffffffff1673ffffffffffffffffffffffffffffffffffffffff16815260200190815260200160002060008282546112bd91906121a4565b925050819055505b5b50505050565b50505050565b6000808273ffffffffffffffffffffffffffffffffffffffff163b119050919050565b600033905090565b6000604051905090565b600080fd5b600080fd5b60007fffffffff0000000000000000000000000000000000000000000000000000000082169050919050565b61134681611311565b811461135157600080fd5b50565b6000813590506113638161133d565b92915050565b60006020828403121561137f5761137e611307565b5b600061138d84828501611354565b91505092915050565b60008115159050919050565b6113ab81611396565b82525050565b60006020820190506113c660008301846113a2565b92915050565b600081519050919050565b600082825260208201905092915050565b60005b838110156114065780820151818401526020810190506113eb565b60008484015250505050565b6000601f19601f8301169050919050565b600061142e826113cc565b61143881856113d7565b93506114488185602086016113e8565b61145181611412565b840191505092915050565b600060208201905081810360008301526114768184611423565b905092915050565b6000819050919050565b6114918161147e565b811461149c57600080fd5b50565b6000813590506114ae81611488565b92915050565b6000602082840312156114ca576114c9611307565b5b60006114d88482850161149f565b91505092915050565b600073ffffffffffffffffffffffffffffffffffffffff82169050919050565b600061150c826114e1565b9050919050565b61151c81611501565b82525050565b60006020820190506115376000830184611513565b92915050565b61154681611501565b811461155157600080fd5b50565b6000813590506115638161153d565b92915050565b600080604083850312156115805761157f611307565b5b600061158e85828601611554565b925050602061159f8582860161149f565b9150509250929050565b6000806000606084860312156115c2576115c1611307565b5b60006115d086828701611554565b93505060206115e186828701611554565b92505060406115f28682870161149f565b9150509250925092565b60006020828403121561161257611611611307565b5b600061162084828501611554565b91505092915050565b6116328161147e565b82525050565b600060208201905061164d6000830184611629565b92915050565b61165c81611396565b811461166757600080fd5b50565b60008135905061167981611653565b92915050565b6000806040838503121561169657611695611307565b5b60006116a485828601611554565b92505060206116b58582860161166a565b9150509250929050565b600080fd5b600080fd5b7f4e487b7100000000000000000000000000000000000000000000000000000000600052604160045260246000fd5b61170182611412565b810181811067ffffffffffffffff821117156117205761171f6116c9565b5b80604052505050565b60006117336112fd565b905061173f82826116f8565b919050565b600067ffffffffffffffff82111561175f5761175e6116c9565b5b61176882611412565b9050602081019050919050565b82818337600083830152505050565b600061179761179284611744565b611729565b9050828152602081018484840111156117b3576117b26116c4565b5b6117be848285611775565b509392505050565b600082601f8301126117db576117da6116bf565b5b81356117eb848260208601611784565b91505092915050565b6000806000806080858703121561180e5761180d611307565b5b600061181c87828801611554565b945050602061182d87828801611554565b935050604061183e8782880161149f565b925050606085013567ffffffffffffffff81111561185f5761185e61130c565b5b61186b878288016117c6565b91505092959194509250565b600080fd5b600080fd5b60008083601f840112611897576118966116bf565b5b8235905067ffffffffffffffff8111156118b4576118b3611877565b5b6020830191508360018202830111156118d0576118cf61187c565b5b9250929050565b600080600080606085870312156118f1576118f0611307565b5b60006118ff87828801611554565b94505060206119108782880161149f565b935050604085013567ffffffffffffffff8111156119315761193061130c565b5b61193d87828801611881565b925092505092959194509250565b6000806040838503121561196257611961611307565b5b600061197085828601611554565b925050602061198185828601611554565b9150509250929050565b7f4e487b7100000000000000000000000000000000000000000000000000000000600052602260045260246000fd5b600060028204905060018216806119d257607f821691505b6020821081036119e5576119e461198b565b5b50919050565b7f5472616e7366657273206e6f7420616c6c6f7765640000000000000000000000600082015250565b6000611a216015836113d7565b9150611a2c826119eb565b602082019050919050565b60006020820190508181036000830152611a5081611a14565b9050919050565b7f4552433732313a20696e76616c696420746f6b656e2049440000000000000000600082015250565b6000611a8d6018836113d7565b9150611a9882611a57565b602082019050919050565b60006020820190508181036000830152611abc81611a80565b9050919050565b7f4552433732313a2061646472657373207a65726f206973206e6f74206120766160008201527f6c6964206f776e65720000000000000000000000000000000000000000000000602082015250565b6000611b1f6029836113d7565b9150611b2a82611ac3565b604082019050919050565b60006020820190508181036000830152611b4e81611b12565b9050919050565b600081905092915050565b6000611b6b826113cc565b611b758185611b55565b9350611b858185602086016113e8565b80840191505092915050565b6000611b9d8285611b60565b9150611ba98284611b60565b91508190509392505050565b7f4e487b7100000000000000000000000000000000000000000000000000000000600052601260045260246000fd5b7f45524337323155524953746f726167653a2055524920736574206f66206e6f6e60008201527f6578697374656e7420746f6b656e000000000000000000000000000000000000602082015250565b6000611c40602e836113d7565b9150611c4b82611be4565b604082019050919050565b60006020820190508181036000830152611c6f81611c33565b9050919050565b60008190508160005260206000209050919050565b60006020601f8301049050919050565b600082821b905092915050565b600060088302611cd87fffffffffffffffffffffffffffffffffffffffffffffffffffffffffffffffff82611c9b565b611ce28683611c9b565b95508019841693508086168417925050509392505050565b6000819050919050565b6000611d1f611d1a611d158461147e565b611cfa565b61147e565b9050919050565b6000819050919050565b611d3983611d04565b611d4d611d4582611d26565b848454611ca8565b825550505050565b600090565b611d62611d55565b611d6d818484611d30565b505050565b5b81811015611d9157611d86600082611d5a565b600181019050611d73565b5050565b601f821115611dd657611da781611c76565b611db084611c8b565b81016020851015611dbf578190505b611dd3611dcb85611c8b565b830182611d72565b50505b505050565b600082821c905092915050565b6000611df960001984600802611ddb565b1980831691505092915050565b6000611e128383611de8565b9150826002028217905092915050565b611e2b826113cc565b67ffffffffffffffff811115611e4457611e436116c9565b5b611e4e82546119ba565b611e59828285611d95565b600060209050601f831160018114611e8c5760008415611e7a578287015190505b611e848582611e06565b865550611eec565b601f198416611e9a86611c76565b60005b82811015611ec257848901518255600182019150602085019450602081019050611e9d565b86831015611edf5784890151611edb601f891682611de8565b8355505b6001600288020188555050505b505050505050565b7f4552433732313a207472616e7366657220746f206e6f6e20455243373231526560008201527f63656976657220696d706c656d656e7465720000000000000000000000000000602082015250565b6000611f506032836113d7565b9150611f5b82611ef4565b604082019050919050565b60006020820190508181036000830152611f7f81611f43565b9050919050565b7f4552433732313a206d696e7420746f20746865207a65726f2061646472657373600082015250565b6000611fbc6020836113d7565b9150611fc782611f86565b602082019050919050565b60006020820190508181036000830152611feb81611faf565b9050919050565b7f4552433732313a20746f6b656e20616c7265616479206d696e74656400000000600082015250565b6000612028601c836113d7565b915061203382611ff2565b602082019050919050565b600060208201905081810360008301526120578161201b565b9050919050565b600081519050919050565b600082825260208201905092915050565b60006120858261205e565b61208f8185612069565b935061209f8185602086016113e8565b6120a881611412565b840191505092915050565b60006080820190506120c86000830187611513565b6120d56020830186611513565b6120e26040830185611629565b81810360608301526120f4818461207a565b905095945050505050565b60008151905061210e8161133d565b92915050565b60006020828403121561212a57612129611307565b5b6000612138848285016120ff565b91505092915050565b7f4e487b7100000000000000000000000000000000000000000000000000000000600052601160045260246000fd5b600061217b8261147e565b91506121868361147e565b925082820390508181111561219e5761219d612141565b5b92915050565b60006121af8261147e565b91506121ba8361147e565b92508282019050808211156121d2576121d1612141565b5b9291505056fea264697066735822122077eaa340f39becc3f241f6dea7650502c0b4c6f588586358bfe254aa89d304b264736f6c63430008110033a2646970667358221220f383dd99423e6434b14be1d8ddc179119543c539592d28918d374277627871b264736f6c63430008110033",
  "linkReferences": {},
  "deployedLinkReferences": {}
}